{
  "contractName": "Humaverse",
  "abi": [
    {
      "inputs": [],
      "stateMutability": "nonpayable",
      "type": "constructor"
    },
    {
      "anonymous": false,
      "inputs": [
        {
          "indexed": true,
          "internalType": "address",
          "name": "owner",
          "type": "address"
        },
        {
          "indexed": true,
          "internalType": "address",
          "name": "approved",
          "type": "address"
        },
        {
          "indexed": true,
          "internalType": "uint256",
          "name": "tokenId",
          "type": "uint256"
        }
      ],
      "name": "Approval",
      "type": "event"
    },
    {
      "anonymous": false,
      "inputs": [
        {
          "indexed": true,
          "internalType": "address",
          "name": "owner",
          "type": "address"
        },
        {
          "indexed": true,
          "internalType": "address",
          "name": "operator",
          "type": "address"
        },
        {
          "indexed": false,
          "internalType": "bool",
          "name": "approved",
          "type": "bool"
        }
      ],
      "name": "ApprovalForAll",
      "type": "event"
    },
    {
      "anonymous": false,
      "inputs": [
        {
          "indexed": false,
          "internalType": "uint256",
          "name": "amount",
          "type": "uint256"
        }
      ],
      "name": "BalanceWithdrawn",
      "type": "event"
    },
    {
      "anonymous": false,
      "inputs": [
        {
          "indexed": false,
          "internalType": "address",
          "name": "to",
          "type": "address"
        },
        {
          "indexed": false,
          "internalType": "uint256",
          "name": "numberOfNFTs",
          "type": "uint256"
        }
      ],
      "name": "HVNFTsMinted",
      "type": "event"
    },
    {
      "anonymous": false,
      "inputs": [
        {
          "indexed": true,
          "internalType": "address",
          "name": "previousOwner",
          "type": "address"
        },
        {
          "indexed": true,
          "internalType": "address",
          "name": "newOwner",
          "type": "address"
        }
      ],
      "name": "OwnershipTransferred",
      "type": "event"
    },
    {
      "anonymous": false,
      "inputs": [
        {
          "indexed": false,
          "internalType": "uint256",
          "name": "hvPrice",
          "type": "uint256"
        }
      ],
      "name": "TokenPriceSet",
      "type": "event"
    },
    {
      "anonymous": false,
      "inputs": [
        {
          "indexed": true,
          "internalType": "address",
          "name": "from",
          "type": "address"
        },
        {
          "indexed": true,
          "internalType": "address",
          "name": "to",
          "type": "address"
        },
        {
          "indexed": true,
          "internalType": "uint256",
          "name": "tokenId",
          "type": "uint256"
        }
      ],
      "name": "Transfer",
      "type": "event"
    },
    {
      "anonymous": false,
      "inputs": [
        {
          "indexed": false,
          "internalType": "bool",
          "name": "saleIsActive",
          "type": "bool"
        }
      ],
      "name": "saleStateFlipped",
      "type": "event"
    },
    {
      "inputs": [],
      "name": "HV_PROVENANCE",
      "outputs": [
        {
          "internalType": "string",
          "name": "",
          "type": "string"
        }
      ],
      "stateMutability": "view",
      "type": "function"
    },
    {
      "inputs": [],
      "name": "MAX_HV",
      "outputs": [
        {
          "internalType": "uint256",
          "name": "",
          "type": "uint256"
        }
      ],
      "stateMutability": "view",
      "type": "function"
    },
    {
      "inputs": [],
      "name": "REVEAL_TIMESTAMP",
      "outputs": [
        {
          "internalType": "uint256",
          "name": "",
          "type": "uint256"
        }
      ],
      "stateMutability": "view",
      "type": "function"
    },
    {
      "inputs": [
        {
          "internalType": "address",
          "name": "to",
          "type": "address"
        },
        {
          "internalType": "uint256",
          "name": "tokenId",
          "type": "uint256"
        }
      ],
      "name": "approve",
      "outputs": [],
      "stateMutability": "nonpayable",
      "type": "function"
    },
    {
      "inputs": [
        {
          "internalType": "address",
          "name": "owner",
          "type": "address"
        }
      ],
      "name": "balanceOf",
      "outputs": [
        {
          "internalType": "uint256",
          "name": "",
          "type": "uint256"
        }
      ],
      "stateMutability": "view",
      "type": "function"
    },
    {
      "inputs": [
        {
          "internalType": "uint256",
          "name": "tokenId",
          "type": "uint256"
        }
      ],
      "name": "getApproved",
      "outputs": [
        {
          "internalType": "address",
          "name": "",
          "type": "address"
        }
      ],
      "stateMutability": "view",
      "type": "function"
    },
    {
      "inputs": [],
      "name": "hvPrice",
      "outputs": [
        {
          "internalType": "uint256",
          "name": "",
          "type": "uint256"
        }
      ],
      "stateMutability": "view",
      "type": "function"
    },
    {
      "inputs": [
        {
          "internalType": "address",
          "name": "owner",
          "type": "address"
        },
        {
          "internalType": "address",
          "name": "operator",
          "type": "address"
        }
      ],
      "name": "isApprovedForAll",
      "outputs": [
        {
          "internalType": "bool",
          "name": "",
          "type": "bool"
        }
      ],
      "stateMutability": "view",
      "type": "function"
    },
    {
      "inputs": [],
      "name": "maxHVPurchase",
      "outputs": [
        {
          "internalType": "uint256",
          "name": "",
          "type": "uint256"
        }
      ],
      "stateMutability": "view",
      "type": "function"
    },
    {
      "inputs": [],
      "name": "name",
      "outputs": [
        {
          "internalType": "string",
          "name": "",
          "type": "string"
        }
      ],
      "stateMutability": "view",
      "type": "function"
    },
    {
      "inputs": [],
      "name": "owner",
      "outputs": [
        {
          "internalType": "address",
          "name": "",
          "type": "address"
        }
      ],
      "stateMutability": "view",
      "type": "function"
    },
    {
      "inputs": [
        {
          "internalType": "uint256",
          "name": "tokenId",
          "type": "uint256"
        }
      ],
      "name": "ownerOf",
      "outputs": [
        {
          "internalType": "address",
          "name": "",
          "type": "address"
        }
      ],
      "stateMutability": "view",
      "type": "function"
    },
    {
      "inputs": [],
      "name": "renounceOwnership",
      "outputs": [],
      "stateMutability": "nonpayable",
      "type": "function"
    },
    {
      "inputs": [
        {
          "internalType": "address",
          "name": "from",
          "type": "address"
        },
        {
          "internalType": "address",
          "name": "to",
          "type": "address"
        },
        {
          "internalType": "uint256",
          "name": "tokenId",
          "type": "uint256"
        }
      ],
      "name": "safeTransferFrom",
      "outputs": [],
      "stateMutability": "nonpayable",
      "type": "function"
    },
    {
      "inputs": [
        {
          "internalType": "address",
          "name": "from",
          "type": "address"
        },
        {
          "internalType": "address",
          "name": "to",
          "type": "address"
        },
        {
          "internalType": "uint256",
          "name": "tokenId",
          "type": "uint256"
        },
        {
          "internalType": "bytes",
          "name": "_data",
          "type": "bytes"
        }
      ],
      "name": "safeTransferFrom",
      "outputs": [],
      "stateMutability": "nonpayable",
      "type": "function"
    },
    {
      "inputs": [],
      "name": "saleIsActive",
      "outputs": [
        {
          "internalType": "bool",
          "name": "",
          "type": "bool"
        }
      ],
      "stateMutability": "view",
      "type": "function"
    },
    {
      "inputs": [
        {
          "internalType": "address",
          "name": "operator",
          "type": "address"
        },
        {
          "internalType": "bool",
          "name": "approved",
          "type": "bool"
        }
      ],
      "name": "setApprovalForAll",
      "outputs": [],
      "stateMutability": "nonpayable",
      "type": "function"
    },
    {
      "inputs": [],
      "name": "startingIndex",
      "outputs": [
        {
          "internalType": "uint256",
          "name": "",
          "type": "uint256"
        }
      ],
      "stateMutability": "view",
      "type": "function"
    },
    {
      "inputs": [],
      "name": "startingIndexBlock",
      "outputs": [
        {
          "internalType": "uint256",
          "name": "",
          "type": "uint256"
        }
      ],
      "stateMutability": "view",
      "type": "function"
    },
    {
      "inputs": [
        {
          "internalType": "bytes4",
          "name": "interfaceId",
          "type": "bytes4"
        }
      ],
      "name": "supportsInterface",
      "outputs": [
        {
          "internalType": "bool",
          "name": "",
          "type": "bool"
        }
      ],
      "stateMutability": "view",
      "type": "function"
    },
    {
      "inputs": [],
      "name": "symbol",
      "outputs": [
        {
          "internalType": "string",
          "name": "",
          "type": "string"
        }
      ],
      "stateMutability": "view",
      "type": "function"
    },
    {
      "inputs": [
        {
          "internalType": "uint256",
          "name": "index",
          "type": "uint256"
        }
      ],
      "name": "tokenByIndex",
      "outputs": [
        {
          "internalType": "uint256",
          "name": "",
          "type": "uint256"
        }
      ],
      "stateMutability": "view",
      "type": "function"
    },
    {
      "inputs": [
        {
          "internalType": "address",
          "name": "owner",
          "type": "address"
        },
        {
          "internalType": "uint256",
          "name": "index",
          "type": "uint256"
        }
      ],
      "name": "tokenOfOwnerByIndex",
      "outputs": [
        {
          "internalType": "uint256",
          "name": "",
          "type": "uint256"
        }
      ],
      "stateMutability": "view",
      "type": "function"
    },
    {
      "inputs": [],
      "name": "totalSupply",
      "outputs": [
        {
          "internalType": "uint256",
          "name": "",
          "type": "uint256"
        }
      ],
      "stateMutability": "view",
      "type": "function"
    },
    {
      "inputs": [
        {
          "internalType": "address",
          "name": "from",
          "type": "address"
        },
        {
          "internalType": "address",
          "name": "to",
          "type": "address"
        },
        {
          "internalType": "uint256",
          "name": "tokenId",
          "type": "uint256"
        }
      ],
      "name": "transferFrom",
      "outputs": [],
      "stateMutability": "nonpayable",
      "type": "function"
    },
    {
      "inputs": [
        {
          "internalType": "address",
          "name": "newOwner",
          "type": "address"
        }
      ],
      "name": "transferOwnership",
      "outputs": [],
      "stateMutability": "nonpayable",
      "type": "function"
    },
    {
      "inputs": [
        {
          "internalType": "uint256",
          "name": "saleStart",
          "type": "uint256"
        },
        {
          "internalType": "uint256",
          "name": "daysOfSale",
          "type": "uint256"
        }
      ],
      "name": "setTimeStamp",
      "outputs": [],
      "stateMutability": "nonpayable",
      "type": "function"
    },
    {
      "inputs": [
        {
          "internalType": "string",
          "name": "provenanceHash",
          "type": "string"
        }
      ],
      "name": "setProvenanceHash",
      "outputs": [
        {
          "internalType": "string",
          "name": "",
          "type": "string"
        }
      ],
      "stateMutability": "nonpayable",
      "type": "function"
    },
    {
      "inputs": [],
      "name": "ethBalance",
      "outputs": [
        {
          "internalType": "uint256",
          "name": "",
          "type": "uint256"
        }
      ],
      "stateMutability": "view",
      "type": "function"
    },
    {
      "inputs": [],
      "name": "withdraw",
      "outputs": [],
      "stateMutability": "payable",
      "type": "function"
    },
    {
      "inputs": [],
      "name": "flipSaleState",
      "outputs": [],
      "stateMutability": "nonpayable",
      "type": "function"
    },
    {
      "inputs": [],
      "name": "checkSaleState",
      "outputs": [
        {
          "internalType": "bool",
          "name": "",
          "type": "bool"
        }
      ],
      "stateMutability": "view",
      "type": "function"
    },
    {
      "inputs": [
        {
          "internalType": "string",
          "name": "uri",
          "type": "string"
        }
      ],
      "name": "setBaseURI",
      "outputs": [],
      "stateMutability": "nonpayable",
      "type": "function"
    },
    {
      "inputs": [
        {
          "internalType": "uint256",
          "name": "amount",
          "type": "uint256"
        }
      ],
      "name": "setHvPrice",
      "outputs": [],
      "stateMutability": "nonpayable",
      "type": "function"
    },
    {
      "inputs": [
        {
          "internalType": "uint256",
          "name": "numberOfNFTs",
          "type": "uint256"
        }
      ],
      "name": "mintPublicSale",
      "outputs": [],
      "stateMutability": "nonpayable",
      "type": "function"
    },
    {
      "inputs": [
        {
          "internalType": "uint256",
          "name": "numberOfNFTs",
          "type": "uint256"
        }
      ],
      "name": "mintToken",
      "outputs": [],
      "stateMutability": "payable",
      "type": "function"
    },
    {
      "inputs": [
        {
          "internalType": "uint256",
          "name": "_tokenId",
          "type": "uint256"
        }
      ],
      "name": "tokenURI",
      "outputs": [
        {
          "internalType": "string",
          "name": "",
          "type": "string"
        }
      ],
      "stateMutability": "view",
      "type": "function"
    },
    {
      "inputs": [],
      "name": "setStartingIndex",
      "outputs": [],
      "stateMutability": "nonpayable",
      "type": "function"
    },
    {
      "inputs": [],
      "name": "emergencySetStartingIndexBlock",
      "outputs": [],
      "stateMutability": "nonpayable",
      "type": "function"
    }
  ],
  "bytecode": "0x608060405260405180602001604052806000815250600c90805190602001906200002b92919062000203565b506000601060006101000a81548160ff0219169083151502179055503480156200005457600080fd5b506040518060400160405280600981526020017f48554d41564552534500000000000000000000000000000000000000000000008152506040518060400160405280600581526020017f48564e46540000000000000000000000000000000000000000000000000000008152508160009080519060200190620000d992919062000203565b508060019080519060200190620000f292919062000203565b505050620001276200011262000135640100000000026401000000009004565b6200013d640100000000026401000000009004565b6001600b8190555062000318565b600033905090565b6000600a60009054906101000a900473ffffffffffffffffffffffffffffffffffffffff16905081600a60006101000a81548173ffffffffffffffffffffffffffffffffffffffff021916908373ffffffffffffffffffffffffffffffffffffffff1602179055508173ffffffffffffffffffffffffffffffffffffffff168173ffffffffffffffffffffffffffffffffffffffff167f8be0079c531659141344cd1fd0a4f28419497f9722a3daafe3b4186f6b6457e060405160405180910390a35050565b8280546200021190620002b3565b90600052602060002090601f01602090048101928262000235576000855562000281565b82601f106200025057805160ff191683800117855562000281565b8280016001018555821562000281579182015b828111156200028057825182559160200191906001019062000263565b5b50905062000290919062000294565b5090565b5b80821115620002af57600081600090555060010162000295565b5090565b60006002820490506001821680620002cc57607f821691505b60208210811415620002e357620002e2620002e9565b5b50919050565b7f4e487b7100000000000000000000000000000000000000000000000000000000600052602260045260246000fd5b614c7980620003286000396000f3fe60806040526004361061024d576000357c0100000000000000000000000000000000000000000000000000000000900480635a5e5d581161014b578063b98a7e7f116100c8578063e36d64981161008c578063e36d64981461081a578063e985e9c514610845578063e986655014610882578063eb8d244414610899578063f2fde38b146108c45761024d565b8063b98a7e7f14610744578063c634d0321461076d578063c87b56dd14610789578063cb774d47146107c6578063ddb6af4c146107f15761024d565b80638b339da71161010f5780638b339da7146106715780638da5cb5b1461069c57806395d89b41146106c7578063a22cb465146106f2578063b88d4fde1461071b5761024d565b80635a5e5d58146105a05780636352211e146105c957806370a0823114610606578063715018a6146106435780637d17fcbe1461065a5761024d565b806318e20a38116101d95780633e71d5fb1161019d5780633e71d5fb146104bb57806342842e0e146104e65780634e6630b01461050f5780634f6ccce71461053a57806355f804b3146105775761024d565b806318e20a381461040957806323b872dd146104345780632f745c591461045d57806334918dfd1461049a5780633ccfd60b146104b15761024d565b80630d351b4c116102205780630d351b4c146103205780630dec50b31461034b578063109695231461037657806312f381cc146103b357806318160ddd146103de5761024d565b806301ffc9a71461025257806306fdde031461028f578063081812fc146102ba578063095ea7b3146102f7575b600080fd5b34801561025e57600080fd5b50610279600480360381019061027491906135df565b6108ed565b6040516102869190613cf1565b60405180910390f35b34801561029b57600080fd5b506102a4610967565b6040516102b19190613d0c565b60405180910390f35b3480156102c657600080fd5b506102e160048036038101906102dc9190613672565b6109f9565b6040516102ee9190613c61565b60405180910390f35b34801561030357600080fd5b5061031e600480360381019061031991906135a3565b610a7e565b005b34801561032c57600080fd5b50610335610b96565b604051610342919061408e565b60405180910390f35b34801561035757600080fd5b50610360610b9c565b60405161036d919061408e565b60405180910390f35b34801561038257600080fd5b5061039d60048036038101906103989190613631565b610ba1565b6040516103aa9190613d0c565b60405180910390f35b3480156103bf57600080fd5b506103c8610cc8565b6040516103d59190613d0c565b60405180910390f35b3480156103ea57600080fd5b506103f3610d56565b604051610400919061408e565b60405180910390f35b34801561041557600080fd5b5061041e610d63565b60405161042b919061408e565b60405180910390f35b34801561044057600080fd5b5061045b6004803603810190610456919061349d565b610d69565b005b34801561046957600080fd5b50610484600480360381019061047f91906135a3565b610dc9565b604051610491919061408e565b60405180910390f35b3480156104a657600080fd5b506104af610e6e565b005b6104b9610f5c565b005b3480156104c757600080fd5b506104d061103f565b6040516104dd9190613cf1565b60405180910390f35b3480156104f257600080fd5b5061050d6004803603810190610508919061349d565b611056565b005b34801561051b57600080fd5b50610524611076565b604051610531919061408e565b60405180910390f35b34801561054657600080fd5b50610561600480360381019061055c9190613672565b61109a565b60405161056e919061408e565b60405180910390f35b34801561058357600080fd5b5061059e60048036038101906105999190613631565b611131565b005b3480156105ac57600080fd5b506105c760048036038101906105c29190613672565b6111c7565b005b3480156105d557600080fd5b506105f060048036038101906105eb9190613672565b611328565b6040516105fd9190613c61565b60405180910390f35b34801561061257600080fd5b5061062d60048036038101906106289190613438565b6113da565b60405161063a919061408e565b60405180910390f35b34801561064f57600080fd5b50610658611492565b005b34801561066657600080fd5b5061066f61151a565b005b34801561067d57600080fd5b506106866115e4565b604051610693919061408e565b60405180910390f35b3480156106a857600080fd5b506106b16115ea565b6040516106be9190613c61565b60405180910390f35b3480156106d357600080fd5b506106dc611614565b6040516106e99190613d0c565b60405180910390f35b3480156106fe57600080fd5b5061071960048036038101906107149190613567565b6116a6565b005b34801561072757600080fd5b50610742600480360381019061073d91906134ec565b6116bc565b005b34801561075057600080fd5b5061076b60048036038101906107669190613672565b61171e565b005b61078760048036038101906107829190613672565b6117dd565b005b34801561079557600080fd5b506107b060048036038101906107ab9190613672565b611a89565b6040516107bd9190613d0c565b60405180910390f35b3480156107d257600080fd5b506107db611abd565b6040516107e8919061408e565b60405180910390f35b3480156107fd57600080fd5b506108186004803603810190610813919061369b565b611ac3565b005b34801561082657600080fd5b5061082f611b63565b60405161083c919061408e565b60405180910390f35b34801561085157600080fd5b5061086c60048036038101906108679190613461565b611b69565b6040516108799190613cf1565b60405180910390f35b34801561088e57600080fd5b50610897611bfd565b005b3480156108a557600080fd5b506108ae611d10565b6040516108bb9190613cf1565b60405180910390f35b3480156108d057600080fd5b506108eb60048036038101906108e69190613438565b611d23565b005b60007f780e9d63000000000000000000000000000000000000000000000000000000007bffffffffffffffffffffffffffffffffffffffffffffffffffffffff1916827bffffffffffffffffffffffffffffffffffffffffffffffffffffffff19161480610960575061095f82611e1b565b5b9050919050565b6060600080546109769061435e565b80601f01602080910402602001604051908101604052809291908181526020018280546109a29061435e565b80156109ef5780601f106109c4576101008083540402835291602001916109ef565b820191906000526020600020905b8154815290600101906020018083116109d257829003601f168201915b5050505050905090565b6000610a0482611efd565b610a43576040517f08c379a0000000000000000000000000000000000000000000000000000000008152600401610a3a90613f4e565b60405180910390fd5b6004600083815260200190815260200160002060009054906101000a900473ffffffffffffffffffffffffffffffffffffffff169050919050565b6000610a8982611328565b90508073ffffffffffffffffffffffffffffffffffffffff168373ffffffffffffffffffffffffffffffffffffffff161415610afa576040517f08c379a0000000000000000000000000000000000000000000000000000000008152600401610af190613fae565b60405180910390fd5b8073ffffffffffffffffffffffffffffffffffffffff16610b19611f69565b73ffffffffffffffffffffffffffffffffffffffff161480610b485750610b4781610b42611f69565b611b69565b5b610b87576040517f08c379a0000000000000000000000000000000000000000000000000000000008152600401610b7e90613eae565b60405180910390fd5b610b918383611f71565b505050565b600f5481565b600a81565b6060610bab611f69565b73ffffffffffffffffffffffffffffffffffffffff16610bc96115ea565b73ffffffffffffffffffffffffffffffffffffffff1614610c1f576040517f08c379a0000000000000000000000000000000000000000000000000000000008152600401610c1690613f6e565b60405180910390fd5b81600c9080519060200190610c3592919061325c565b50600c8054610c439061435e565b80601f0160208091040260200160405190810160405280929190818152602001828054610c6f9061435e565b8015610cbc5780601f10610c9157610100808354040283529160200191610cbc565b820191906000526020600020905b815481529060010190602001808311610c9f57829003601f168201915b50505050509050919050565b600c8054610cd59061435e565b80601f0160208091040260200160405190810160405280929190818152602001828054610d019061435e565b8015610d4e5780601f10610d2357610100808354040283529160200191610d4e565b820191906000526020600020905b815481529060010190602001808311610d3157829003601f168201915b505050505081565b6000600880549050905090565b60115481565b610d7a610d74611f69565b8261202a565b610db9576040517f08c379a0000000000000000000000000000000000000000000000000000000008152600401610db090613fee565b60405180910390fd5b610dc4838383612108565b505050565b6000610dd4836113da565b8210610e15576040517f08c379a0000000000000000000000000000000000000000000000000000000008152600401610e0c90613d2e565b60405180910390fd5b600660008473ffffffffffffffffffffffffffffffffffffffff1673ffffffffffffffffffffffffffffffffffffffff168152602001908152602001600020600083815260200190815260200160002054905092915050565b610e76611f69565b73ffffffffffffffffffffffffffffffffffffffff16610e946115ea565b73ffffffffffffffffffffffffffffffffffffffff1614610eea576040517f08c379a0000000000000000000000000000000000000000000000000000000008152600401610ee190613f6e565b60405180910390fd5b601060009054906101000a900460ff1615601060006101000a81548160ff0219169083151502179055507f533d93712d08600cba0aff242b5a87bab629063e2ac53405a4c0639405c4fb37601060009054906101000a900460ff16604051610f529190613cf1565b60405180910390a1565b610f64611f69565b73ffffffffffffffffffffffffffffffffffffffff16610f826115ea565b73ffffffffffffffffffffffffffffffffffffffff1614610fd8576040517f08c379a0000000000000000000000000000000000000000000000000000000008152600401610fcf90613f6e565b60405180910390fd5b60003073ffffffffffffffffffffffffffffffffffffffff16319050611005610fff6115ea565b8261236f565b7f39f8b889424a1684bd36857c25ab79691ed71adf60bbeca32820cb4de3c5884c81604051611034919061408e565b60405180910390a150565b6000601060009054906101000a900460ff16905090565b611071838383604051806020016040528060008152506116bc565b505050565b6000803073ffffffffffffffffffffffffffffffffffffffff163190508091505090565b60006110a4610d56565b82106110e5576040517f08c379a00000000000000000000000000000000000000000000000000000000081526004016110dc9061400e565b60405180910390fd5b6008828154811061111f577f4e487b7100000000000000000000000000000000000000000000000000000000600052603260045260246000fd5b90600052602060002001549050919050565b611139611f69565b73ffffffffffffffffffffffffffffffffffffffff166111576115ea565b73ffffffffffffffffffffffffffffffffffffffff16146111ad576040517f08c379a00000000000000000000000000000000000000000000000000000000081526004016111a490613f6e565b60405180910390fd5b80601290805190602001906111c392919061325c565b5050565b6111cf611f69565b73ffffffffffffffffffffffffffffffffffffffff166111ed6115ea565b73ffffffffffffffffffffffffffffffffffffffff1614611243576040517f08c379a000000000000000000000000000000000000000000000000000000000815260040161123a90613f6e565b60405180910390fd5b6103e861126082611252610d56565b61247a90919063ffffffff16565b11156112a1576040517f08c379a000000000000000000000000000000000000000000000000000000000815260040161129890613f8e565b60405180910390fd5b600081116112e4576040517f08c379a00000000000000000000000000000000000000000000000000000000081526004016112db90613f2e565b60405180910390fd5b60006112ee610d56565b905060005b828110156113235761131033828461130b9190614193565b612490565b808061131b906143c1565b9150506112f3565b505050565b6000806002600084815260200190815260200160002060009054906101000a900473ffffffffffffffffffffffffffffffffffffffff169050600073ffffffffffffffffffffffffffffffffffffffff168173ffffffffffffffffffffffffffffffffffffffff1614156113d1576040517f08c379a00000000000000000000000000000000000000000000000000000000081526004016113c890613eee565b60405180910390fd5b80915050919050565b60008073ffffffffffffffffffffffffffffffffffffffff168273ffffffffffffffffffffffffffffffffffffffff16141561144b576040517f08c379a000000000000000000000000000000000000000000000000000000000815260040161144290613ece565b60405180910390fd5b600360008373ffffffffffffffffffffffffffffffffffffffff1673ffffffffffffffffffffffffffffffffffffffff168152602001908152602001600020549050919050565b61149a611f69565b73ffffffffffffffffffffffffffffffffffffffff166114b86115ea565b73ffffffffffffffffffffffffffffffffffffffff161461150e576040517f08c379a000000000000000000000000000000000000000000000000000000000815260040161150590613f6e565b60405180910390fd5b61151860006124ae565b565b611522611f69565b73ffffffffffffffffffffffffffffffffffffffff166115406115ea565b73ffffffffffffffffffffffffffffffffffffffff1614611596576040517f08c379a000000000000000000000000000000000000000000000000000000000815260040161158d90613f6e565b60405180910390fd5b6000600e54146115db576040517f08c379a00000000000000000000000000000000000000000000000000000000081526004016115d290613e8e565b60405180910390fd5b43600d81905550565b6103e881565b6000600a60009054906101000a900473ffffffffffffffffffffffffffffffffffffffff16905090565b6060600180546116239061435e565b80601f016020809104026020016040519081016040528092919081815260200182805461164f9061435e565b801561169c5780601f106116715761010080835404028352916020019161169c565b820191906000526020600020905b81548152906001019060200180831161167f57829003601f168201915b5050505050905090565b6116b86116b1611f69565b8383612574565b5050565b6116cd6116c7611f69565b8361202a565b61170c576040517f08c379a000000000000000000000000000000000000000000000000000000000815260040161170390613fee565b60405180910390fd5b611718848484846126e1565b50505050565b611726611f69565b73ffffffffffffffffffffffffffffffffffffffff166117446115ea565b73ffffffffffffffffffffffffffffffffffffffff161461179a576040517f08c379a000000000000000000000000000000000000000000000000000000000815260040161179190613f6e565b60405180910390fd5b80600f819055507f4b59d61d9ffdc3db926d0ce7e06ebabb6bd1bf9dcdae262667e48be368227216600f546040516117d2919061408e565b60405180910390a150565b6002600b541415611823576040517f08c379a000000000000000000000000000000000000000000000000000000000815260040161181a9061404e565b60405180910390fd5b6002600b8190555060011515601060009054906101000a900460ff16151514611881576040517f08c379a00000000000000000000000000000000000000000000000000000000081526004016118789061402e565b60405180910390fd5b600081116118c4576040517f08c379a00000000000000000000000000000000000000000000000000000000081526004016118bb90613f2e565b60405180910390fd5b600a811115611908576040517f08c379a00000000000000000000000000000000000000000000000000000000081526004016118ff9061406e565b60405180910390fd5b6103e861192582611917610d56565b61247a90919063ffffffff16565b1115611966576040517f08c379a000000000000000000000000000000000000000000000000000000000815260040161195d90613f8e565b60405180910390fd5b3461197c82600f5461273d90919063ffffffff16565b11156119bd576040517f08c379a00000000000000000000000000000000000000000000000000000000081526004016119b490613e0e565b60405180910390fd5b60005b81811015611a105760006119d2610d56565b90506103e86119df610d56565b10156119fc576119fb336001836119f69190614193565b612490565b5b508080611a08906143c1565b9150506119c0565b507fd1f040065ad626df3b7180ceab12b289adbdc0eeccb7e905667c9dead62186ab3382604051611a42929190613cc8565b60405180910390a16000600d54148015611a7157506103e8611a62610d56565b1480611a7057506011544210155b5b15611a7e5743600d819055505b6001600b8190555050565b60606012611a9683612753565b604051602001611aa7929190613c1d565b6040516020818303038152906040529050919050565b600e5481565b611acb611f69565b73ffffffffffffffffffffffffffffffffffffffff16611ae96115ea565b73ffffffffffffffffffffffffffffffffffffffff1614611b3f576040517f08c379a0000000000000000000000000000000000000000000000000000000008152600401611b3690613f6e565b60405180910390fd5b8062015180611b4e919061421a565b82611b599190614193565b6011819055505050565b600d5481565b6000600560008473ffffffffffffffffffffffffffffffffffffffff1673ffffffffffffffffffffffffffffffffffffffff16815260200190815260200160002060008373ffffffffffffffffffffffffffffffffffffffff1673ffffffffffffffffffffffffffffffffffffffff16815260200190815260200160002060009054906101000a900460ff16905092915050565b6000600e5414611c42576040517f08c379a0000000000000000000000000000000000000000000000000000000008152600401611c3990613e8e565b60405180910390fd5b6000600d541415611c88576040517f08c379a0000000000000000000000000000000000000000000000000000000008152600401611c7f90613fce565b60405180910390fd5b6103e8600d544060019004611c9d919061440a565b600e8190555060ff611cba600d544361291f90919063ffffffff16565b1115611ce6576103e8600143611cd09190614274565b4060019004611cdf919061440a565b600e819055505b6000600e541415611d0e57611d076001600e5461247a90919063ffffffff16565b600e819055505b565b601060009054906101000a900460ff1681565b611d2b611f69565b73ffffffffffffffffffffffffffffffffffffffff16611d496115ea565b73ffffffffffffffffffffffffffffffffffffffff1614611d9f576040517f08c379a0000000000000000000000000000000000000000000000000000000008152600401611d9690613f6e565b60405180910390fd5b600073ffffffffffffffffffffffffffffffffffffffff168173ffffffffffffffffffffffffffffffffffffffff161415611e0f576040517f08c379a0000000000000000000000000000000000000000000000000000000008152600401611e0690613d6e565b60405180910390fd5b611e18816124ae565b50565b60007f80ac58cd000000000000000000000000000000000000000000000000000000007bffffffffffffffffffffffffffffffffffffffffffffffffffffffff1916827bffffffffffffffffffffffffffffffffffffffffffffffffffffffff19161480611ee657507f5b5e139f000000000000000000000000000000000000000000000000000000007bffffffffffffffffffffffffffffffffffffffffffffffffffffffff1916827bffffffffffffffffffffffffffffffffffffffffffffffffffffffff1916145b80611ef65750611ef582612935565b5b9050919050565b60008073ffffffffffffffffffffffffffffffffffffffff166002600084815260200190815260200160002060009054906101000a900473ffffffffffffffffffffffffffffffffffffffff1673ffffffffffffffffffffffffffffffffffffffff1614159050919050565b600033905090565b816004600083815260200190815260200160002060006101000a81548173ffffffffffffffffffffffffffffffffffffffff021916908373ffffffffffffffffffffffffffffffffffffffff160217905550808273ffffffffffffffffffffffffffffffffffffffff16611fe483611328565b73ffffffffffffffffffffffffffffffffffffffff167f8c5be1e5ebec7d5bd14f71427d1e84f3dd0314c0f7b2291e5b200ac8c7c3b92560405160405180910390a45050565b600061203582611efd565b612074576040517f08c379a000000000000000000000000000000000000000000000000000000000815260040161206b90613e6e565b60405180910390fd5b600061207f83611328565b90508073ffffffffffffffffffffffffffffffffffffffff168473ffffffffffffffffffffffffffffffffffffffff1614806120ee57508373ffffffffffffffffffffffffffffffffffffffff166120d6846109f9565b73ffffffffffffffffffffffffffffffffffffffff16145b806120ff57506120fe8185611b69565b5b91505092915050565b8273ffffffffffffffffffffffffffffffffffffffff1661212882611328565b73ffffffffffffffffffffffffffffffffffffffff161461217e576040517f08c379a000000000000000000000000000000000000000000000000000000000815260040161217590613d8e565b60405180910390fd5b600073ffffffffffffffffffffffffffffffffffffffff168273ffffffffffffffffffffffffffffffffffffffff1614156121ee576040517f08c379a00000000000000000000000000000000000000000000000000000000081526004016121e590613dce565b60405180910390fd5b6121f983838361299f565b612204600082611f71565b6001600360008573ffffffffffffffffffffffffffffffffffffffff1673ffffffffffffffffffffffffffffffffffffffff16815260200190815260200160002060008282546122549190614274565b925050819055506001600360008473ffffffffffffffffffffffffffffffffffffffff1673ffffffffffffffffffffffffffffffffffffffff16815260200190815260200160002060008282546122ab9190614193565b92505081905550816002600083815260200190815260200160002060006101000a81548173ffffffffffffffffffffffffffffffffffffffff021916908373ffffffffffffffffffffffffffffffffffffffff160217905550808273ffffffffffffffffffffffffffffffffffffffff168473ffffffffffffffffffffffffffffffffffffffff167fddf252ad1be2c89b69c2b068fc378daa952ba7f163c4a11628f55a4df523b3ef60405160405180910390a461236a838383612ab3565b505050565b803073ffffffffffffffffffffffffffffffffffffffff163110156123c9576040517f08c379a00000000000000000000000000000000000000000000000000000000081526004016123c090613e4e565b60405180910390fd5b60008273ffffffffffffffffffffffffffffffffffffffff16826040516123ef90613c4c565b60006040518083038185875af1925050503d806000811461242c576040519150601f19603f3d011682016040523d82523d6000602084013e612431565b606091505b5050905080612475576040517f08c379a000000000000000000000000000000000000000000000000000000000815260040161246c90613e2e565b60405180910390fd5b505050565b600081836124889190614193565b905092915050565b6124aa828260405180602001604052806000815250612ab8565b5050565b6000600a60009054906101000a900473ffffffffffffffffffffffffffffffffffffffff16905081600a60006101000a81548173ffffffffffffffffffffffffffffffffffffffff021916908373ffffffffffffffffffffffffffffffffffffffff1602179055508173ffffffffffffffffffffffffffffffffffffffff168173ffffffffffffffffffffffffffffffffffffffff167f8be0079c531659141344cd1fd0a4f28419497f9722a3daafe3b4186f6b6457e060405160405180910390a35050565b8173ffffffffffffffffffffffffffffffffffffffff168373ffffffffffffffffffffffffffffffffffffffff1614156125e3576040517f08c379a00000000000000000000000000000000000000000000000000000000081526004016125da90613dee565b60405180910390fd5b80600560008573ffffffffffffffffffffffffffffffffffffffff1673ffffffffffffffffffffffffffffffffffffffff16815260200190815260200160002060008473ffffffffffffffffffffffffffffffffffffffff1673ffffffffffffffffffffffffffffffffffffffff16815260200190815260200160002060006101000a81548160ff0219169083151502179055508173ffffffffffffffffffffffffffffffffffffffff168373ffffffffffffffffffffffffffffffffffffffff167f17307eab39ab6107e8899845ad3d59bd9653f200f220920489ca2b5937696c31836040516126d49190613cf1565b60405180910390a3505050565b6126ec848484612108565b6126f884848484612b13565b612737576040517f08c379a000000000000000000000000000000000000000000000000000000000815260040161272e90613d4e565b60405180910390fd5b50505050565b6000818361274b919061421a565b905092915050565b6060600082141561279b576040518060400160405280600181526020017f3000000000000000000000000000000000000000000000000000000000000000815250905061291a565b600082905060005b600082146127cd5780806127b6906143c1565b915050600a826127c691906141e9565b91506127a3565b60008167ffffffffffffffff81111561280f577f4e487b7100000000000000000000000000000000000000000000000000000000600052604160045260246000fd5b6040519080825280601f01601f1916602001820160405280156128415781602001600182028036833780820191505090505b5090505b600085146129135760018261285a9190614274565b9150600a85612869919061440a565b60306128759190614193565b7f0100000000000000000000000000000000000000000000000000000000000000028183815181106128d0577f4e487b7100000000000000000000000000000000000000000000000000000000600052603260045260246000fd5b60200101907effffffffffffffffffffffffffffffffffffffffffffffffffffffffffffff1916908160001a905350600a8561290c91906141e9565b9450612845565b8093505050505b919050565b6000818361292d9190614274565b905092915050565b60007f01ffc9a7000000000000000000000000000000000000000000000000000000007bffffffffffffffffffffffffffffffffffffffffffffffffffffffff1916827bffffffffffffffffffffffffffffffffffffffffffffffffffffffff1916149050919050565b6129aa838383612ce2565b600073ffffffffffffffffffffffffffffffffffffffff168373ffffffffffffffffffffffffffffffffffffffff1614156129ed576129e881612ce7565b612a2c565b8173ffffffffffffffffffffffffffffffffffffffff168373ffffffffffffffffffffffffffffffffffffffff1614612a2b57612a2a8382612d30565b5b5b600073ffffffffffffffffffffffffffffffffffffffff168273ffffffffffffffffffffffffffffffffffffffff161415612a6f57612a6a81612e9d565b612aae565b8273ffffffffffffffffffffffffffffffffffffffff168273ffffffffffffffffffffffffffffffffffffffff1614612aad57612aac8282612fe0565b5b5b505050565b505050565b612ac2838361305f565b612acf6000848484612b13565b612b0e576040517f08c379a0000000000000000000000000000000000000000000000000000000008152600401612b0590613d4e565b60405180910390fd5b505050565b6000612b348473ffffffffffffffffffffffffffffffffffffffff16613239565b15612cd5578373ffffffffffffffffffffffffffffffffffffffff1663150b7a02612b5d611f69565b8786866040518563ffffffff167c0100000000000000000000000000000000000000000000000000000000028152600401612b9b9493929190613c7c565b602060405180830381600087803b158015612bb557600080fd5b505af1925050508015612be657506040513d601f19601f82011682018060405250810190612be39190613608565b60015b612c69573d8060008114612c16576040519150601f19603f3d011682016040523d82523d6000602084013e612c1b565b606091505b50600081511415612c61576040517f08c379a0000000000000000000000000000000000000000000000000000000008152600401612c5890613d4e565b60405180910390fd5b805181602001fd5b63150b7a027c0100000000000000000000000000000000000000000000000000000000027bffffffffffffffffffffffffffffffffffffffffffffffffffffffff1916817bffffffffffffffffffffffffffffffffffffffffffffffffffffffff191614915050612cda565b600190505b949350505050565b505050565b6008805490506009600083815260200190815260200160002081905550600881908060018154018082558091505060019003906000526020600020016000909190919091505550565b60006001612d3d846113da565b612d479190614274565b9050600060076000848152602001908152602001600020549050818114612e2c576000600660008673ffffffffffffffffffffffffffffffffffffffff1673ffffffffffffffffffffffffffffffffffffffff168152602001908152602001600020600084815260200190815260200160002054905080600660008773ffffffffffffffffffffffffffffffffffffffff1673ffffffffffffffffffffffffffffffffffffffff168152602001908152602001600020600084815260200190815260200160002081905550816007600083815260200190815260200160002081905550505b6007600084815260200190815260200160002060009055600660008573ffffffffffffffffffffffffffffffffffffffff1673ffffffffffffffffffffffffffffffffffffffff16815260200190815260200160002060008381526020019081526020016000206000905550505050565b60006001600880549050612eb19190614274565b9050600060096000848152602001908152602001600020549050600060088381548110612f07577f4e487b7100000000000000000000000000000000000000000000000000000000600052603260045260246000fd5b906000526020600020015490508060088381548110612f4f577f4e487b7100000000000000000000000000000000000000000000000000000000600052603260045260246000fd5b906000526020600020018190555081600960008381526020019081526020016000208190555060096000858152602001908152602001600020600090556008805480612fc4577f4e487b7100000000000000000000000000000000000000000000000000000000600052603160045260246000fd5b6001900381819060005260206000200160009055905550505050565b6000612feb836113da565b905081600660008573ffffffffffffffffffffffffffffffffffffffff1673ffffffffffffffffffffffffffffffffffffffff168152602001908152602001600020600083815260200190815260200160002081905550806007600084815260200190815260200160002081905550505050565b600073ffffffffffffffffffffffffffffffffffffffff168273ffffffffffffffffffffffffffffffffffffffff1614156130cf576040517f08c379a00000000000000000000000000000000000000000000000000000000081526004016130c690613f0e565b60405180910390fd5b6130d881611efd565b15613118576040517f08c379a000000000000000000000000000000000000000000000000000000000815260040161310f90613dae565b60405180910390fd5b6131246000838361299f565b6001600360008473ffffffffffffffffffffffffffffffffffffffff1673ffffffffffffffffffffffffffffffffffffffff16815260200190815260200160002060008282546131749190614193565b92505081905550816002600083815260200190815260200160002060006101000a81548173ffffffffffffffffffffffffffffffffffffffff021916908373ffffffffffffffffffffffffffffffffffffffff160217905550808273ffffffffffffffffffffffffffffffffffffffff16600073ffffffffffffffffffffffffffffffffffffffff167fddf252ad1be2c89b69c2b068fc378daa952ba7f163c4a11628f55a4df523b3ef60405160405180910390a461323560008383612ab3565b5050565b6000808273ffffffffffffffffffffffffffffffffffffffff163b119050919050565b8280546132689061435e565b90600052602060002090601f01602090048101928261328a57600085556132d1565b82601f106132a357805160ff19168380011785556132d1565b828001600101855582156132d1579182015b828111156132d05782518255916020019190600101906132b5565b5b5090506132de91906132e2565b5090565b5b808211156132fb5760008160009055506001016132e3565b5090565b600061331261330d846140ce565b6140a9565b90508281526020810184848401111561332a57600080fd5b61333584828561431c565b509392505050565b600061335061334b846140ff565b6140a9565b90508281526020810184848401111561336857600080fd5b61337384828561431c565b509392505050565b60008135905061338a81614be7565b92915050565b60008135905061339f81614bfe565b92915050565b6000813590506133b481614c15565b92915050565b6000815190506133c981614c15565b92915050565b600082601f8301126133e057600080fd5b81356133f08482602086016132ff565b91505092915050565b600082601f83011261340a57600080fd5b813561341a84826020860161333d565b91505092915050565b60008135905061343281614c2c565b92915050565b60006020828403121561344a57600080fd5b60006134588482850161337b565b91505092915050565b6000806040838503121561347457600080fd5b60006134828582860161337b565b92505060206134938582860161337b565b9150509250929050565b6000806000606084860312156134b257600080fd5b60006134c08682870161337b565b93505060206134d18682870161337b565b92505060406134e286828701613423565b9150509250925092565b6000806000806080858703121561350257600080fd5b60006135108782880161337b565b94505060206135218782880161337b565b935050604061353287828801613423565b925050606085013567ffffffffffffffff81111561354f57600080fd5b61355b878288016133cf565b91505092959194509250565b6000806040838503121561357a57600080fd5b60006135888582860161337b565b925050602061359985828601613390565b9150509250929050565b600080604083850312156135b657600080fd5b60006135c48582860161337b565b92505060206135d585828601613423565b9150509250929050565b6000602082840312156135f157600080fd5b60006135ff848285016133a5565b91505092915050565b60006020828403121561361a57600080fd5b6000613628848285016133ba565b91505092915050565b60006020828403121561364357600080fd5b600082013567ffffffffffffffff81111561365d57600080fd5b613669848285016133f9565b91505092915050565b60006020828403121561368457600080fd5b600061369284828501613423565b91505092915050565b600080604083850312156136ae57600080fd5b60006136bc85828601613423565b92505060206136cd85828601613423565b9150509250929050565b6136e0816142a8565b82525050565b6136ef816142ba565b82525050565b600061370082614145565b61370a818561415b565b935061371a81856020860161432b565b613723816144f7565b840191505092915050565b600061373982614150565b6137438185614177565b935061375381856020860161432b565b61375c816144f7565b840191505092915050565b600061377282614150565b61377c8185614188565b935061378c81856020860161432b565b80840191505092915050565b600081546137a58161435e565b6137af8186614188565b945060018216600081146137ca57600181146137db5761380e565b60ff1983168652818601935061380e565b6137e485614130565b60005b83811015613806578154818901526001820191506020810190506137e7565b838801955050505b50505092915050565b6000613824602b83614177565b915061382f82614508565b604082019050919050565b6000613847603283614177565b915061385282614557565b604082019050919050565b600061386a602683614177565b9150613875826145a6565b604082019050919050565b600061388d602583614177565b9150613898826145f5565b604082019050919050565b60006138b0601c83614177565b91506138bb82614644565b602082019050919050565b60006138d3602483614177565b91506138de8261466d565b604082019050919050565b60006138f6601983614177565b9150613901826146bc565b602082019050919050565b6000613919601f83614177565b9150613924826146e5565b602082019050919050565b600061393c603a83614177565b91506139478261470e565b604082019050919050565b600061395f601d83614177565b915061396a8261475d565b602082019050919050565b6000613982602c83614177565b915061398d82614786565b604082019050919050565b60006139a5601d83614177565b91506139b0826147d5565b602082019050919050565b60006139c8603883614177565b91506139d3826147fe565b604082019050919050565b60006139eb602a83614177565b91506139f68261484d565b604082019050919050565b6000613a0e602983614177565b9150613a198261489c565b604082019050919050565b6000613a31602083614177565b9150613a3c826148eb565b602082019050919050565b6000613a54602083614177565b9150613a5f82614914565b602082019050919050565b6000613a77602c83614177565b9150613a828261493d565b604082019050919050565b6000613a9a600583614188565b9150613aa58261498c565b600582019050919050565b6000613abd602083614177565b9150613ac8826149b5565b602082019050919050565b6000613ae0602e83614177565b9150613aeb826149de565b604082019050919050565b6000613b03602183614177565b9150613b0e82614a2d565b604082019050919050565b6000613b26602083614177565b9150613b3182614a7c565b602082019050919050565b6000613b4960008361416c565b9150613b5482614aa5565b600082019050919050565b6000613b6c603183614177565b9150613b7782614aa8565b604082019050919050565b6000613b8f602c83614177565b9150613b9a82614af7565b604082019050919050565b6000613bb2601483614177565b9150613bbd82614b46565b602082019050919050565b6000613bd5601f83614177565b9150613be082614b6f565b602082019050919050565b6000613bf8602183614177565b9150613c0382614b98565b604082019050919050565b613c1781614312565b82525050565b6000613c298285613798565b9150613c358284613767565b9150613c4082613a8d565b91508190509392505050565b6000613c5782613b3c565b9150819050919050565b6000602082019050613c7660008301846136d7565b92915050565b6000608082019050613c9160008301876136d7565b613c9e60208301866136d7565b613cab6040830185613c0e565b8181036060830152613cbd81846136f5565b905095945050505050565b6000604082019050613cdd60008301856136d7565b613cea6020830184613c0e565b9392505050565b6000602082019050613d0660008301846136e6565b92915050565b60006020820190508181036000830152613d26818461372e565b905092915050565b60006020820190508181036000830152613d4781613817565b9050919050565b60006020820190508181036000830152613d678161383a565b9050919050565b60006020820190508181036000830152613d878161385d565b9050919050565b60006020820190508181036000830152613da781613880565b9050919050565b60006020820190508181036000830152613dc7816138a3565b9050919050565b60006020820190508181036000830152613de7816138c6565b9050919050565b60006020820190508181036000830152613e07816138e9565b9050919050565b60006020820190508181036000830152613e278161390c565b9050919050565b60006020820190508181036000830152613e478161392f565b9050919050565b60006020820190508181036000830152613e6781613952565b9050919050565b60006020820190508181036000830152613e8781613975565b9050919050565b60006020820190508181036000830152613ea781613998565b9050919050565b60006020820190508181036000830152613ec7816139bb565b9050919050565b60006020820190508181036000830152613ee7816139de565b9050919050565b60006020820190508181036000830152613f0781613a01565b9050919050565b60006020820190508181036000830152613f2781613a24565b9050919050565b60006020820190508181036000830152613f4781613a47565b9050919050565b60006020820190508181036000830152613f6781613a6a565b9050919050565b60006020820190508181036000830152613f8781613ab0565b9050919050565b60006020820190508181036000830152613fa781613ad3565b9050919050565b60006020820190508181036000830152613fc781613af6565b9050919050565b60006020820190508181036000830152613fe781613b19565b9050919050565b6000602082019050818103600083015261400781613b5f565b9050919050565b6000602082019050818103600083015261402781613b82565b9050919050565b6000602082019050818103600083015261404781613ba5565b9050919050565b6000602082019050818103600083015261406781613bc8565b9050919050565b6000602082019050818103600083015261408781613beb565b9050919050565b60006020820190506140a36000830184613c0e565b92915050565b60006140b36140c4565b90506140bf8282614390565b919050565b6000604051905090565b600067ffffffffffffffff8211156140e9576140e86144c8565b5b6140f2826144f7565b9050602081019050919050565b600067ffffffffffffffff82111561411a576141196144c8565b5b614123826144f7565b9050602081019050919050565b60008190508160005260206000209050919050565b600081519050919050565b600081519050919050565b600082825260208201905092915050565b600081905092915050565b600082825260208201905092915050565b600081905092915050565b600061419e82614312565b91506141a983614312565b9250827fffffffffffffffffffffffffffffffffffffffffffffffffffffffffffffffff038211156141de576141dd61443b565b5b828201905092915050565b60006141f482614312565b91506141ff83614312565b92508261420f5761420e61446a565b5b828204905092915050565b600061422582614312565b915061423083614312565b9250817fffffffffffffffffffffffffffffffffffffffffffffffffffffffffffffffff04831182151516156142695761426861443b565b5b828202905092915050565b600061427f82614312565b915061428a83614312565b92508282101561429d5761429c61443b565b5b828203905092915050565b60006142b3826142f2565b9050919050565b60008115159050919050565b60007fffffffff0000000000000000000000000000000000000000000000000000000082169050919050565b600073ffffffffffffffffffffffffffffffffffffffff82169050919050565b6000819050919050565b82818337600083830152505050565b60005b8381101561434957808201518184015260208101905061432e565b83811115614358576000848401525b50505050565b6000600282049050600182168061437657607f821691505b6020821081141561438a57614389614499565b5b50919050565b614399826144f7565b810181811067ffffffffffffffff821117156143b8576143b76144c8565b5b80604052505050565b60006143cc82614312565b91507fffffffffffffffffffffffffffffffffffffffffffffffffffffffffffffffff8214156143ff576143fe61443b565b5b600182019050919050565b600061441582614312565b915061442083614312565b9250826144305761442f61446a565b5b828206905092915050565b7f4e487b7100000000000000000000000000000000000000000000000000000000600052601160045260246000fd5b7f4e487b7100000000000000000000000000000000000000000000000000000000600052601260045260246000fd5b7f4e487b7100000000000000000000000000000000000000000000000000000000600052602260045260246000fd5b7f4e487b7100000000000000000000000000000000000000000000000000000000600052604160045260246000fd5b6000601f19601f8301169050919050565b7f455243373231456e756d657261626c653a206f776e657220696e646578206f7560008201527f74206f6620626f756e6473000000000000000000000000000000000000000000602082015250565b7f4552433732313a207472616e7366657220746f206e6f6e20455243373231526560008201527f63656976657220696d706c656d656e7465720000000000000000000000000000602082015250565b7f4f776e61626c653a206e6577206f776e657220697320746865207a65726f206160008201527f6464726573730000000000000000000000000000000000000000000000000000602082015250565b7f4552433732313a207472616e736665722066726f6d20696e636f72726563742060008201527f6f776e6572000000000000000000000000000000000000000000000000000000602082015250565b7f4552433732313a20746f6b656e20616c7265616479206d696e74656400000000600082015250565b7f4552433732313a207472616e7366657220746f20746865207a65726f2061646460008201527f7265737300000000000000000000000000000000000000000000000000000000602082015250565b7f4552433732313a20617070726f766520746f2063616c6c657200000000000000600082015250565b7f45746865722076616c75652073656e74206973206e6f7420636f727265637400600082015250565b7f416464726573733a20756e61626c6520746f2073656e642076616c75652c207260008201527f6563697069656e74206d61792068617665207265766572746564000000000000602082015250565b7f416464726573733a20696e73756666696369656e742062616c616e6365000000600082015250565b7f4552433732313a206f70657261746f7220717565727920666f72206e6f6e657860008201527f697374656e7420746f6b656e0000000000000000000000000000000000000000602082015250565b7f5374617274696e6720696e64657820697320616c726561647920736574000000600082015250565b7f4552433732313a20617070726f76652063616c6c6572206973206e6f74206f7760008201527f6e6572206e6f7220617070726f76656420666f7220616c6c0000000000000000602082015250565b7f4552433732313a2062616c616e636520717565727920666f7220746865207a6560008201527f726f206164647265737300000000000000000000000000000000000000000000602082015250565b7f4552433732313a206f776e657220717565727920666f72206e6f6e657869737460008201527f656e7420746f6b656e0000000000000000000000000000000000000000000000602082015250565b7f4552433732313a206d696e7420746f20746865207a65726f2061646472657373600082015250565b7f4d757374206d696e74206174206c65617374206f6e65204e46542f546f6b656e600082015250565b7f4552433732313a20617070726f76656420717565727920666f72206e6f6e657860008201527f697374656e7420746f6b656e0000000000000000000000000000000000000000602082015250565b7f2e6a736f6e000000000000000000000000000000000000000000000000000000600082015250565b7f4f776e61626c653a2063616c6c6572206973206e6f7420746865206f776e6572600082015250565b7f507572636861736520776f756c6420657863656564206d617820737570706c7960008201527f206f662048756d61766572736573000000000000000000000000000000000000602082015250565b7f4552433732313a20617070726f76616c20746f2063757272656e74206f776e6560008201527f7200000000000000000000000000000000000000000000000000000000000000602082015250565b7f5374617274696e6720696e64657820626c6f636b206d75737420626520736574600082015250565b50565b7f4552433732313a207472616e736665722063616c6c6572206973206e6f74206f60008201527f776e6572206e6f7220617070726f766564000000000000000000000000000000602082015250565b7f455243373231456e756d657261626c653a20676c6f62616c20696e646578206f60008201527f7574206f6620626f756e64730000000000000000000000000000000000000000602082015250565b7f53616c6520686173206e6f742073746172746564000000000000000000000000600082015250565b7f5265656e7472616e637947756172643a207265656e7472616e742063616c6c00600082015250565b7f43616e206f6e6c79206d696e7420313020746f6b656e7320617420612074696d60008201527f6500000000000000000000000000000000000000000000000000000000000000602082015250565b614bf0816142a8565b8114614bfb57600080fd5b50565b614c07816142ba565b8114614c1257600080fd5b50565b614c1e816142c6565b8114614c2957600080fd5b50565b614c3581614312565b8114614c4057600080fd5b5056fea2646970667358221220078cdca3af0d42bab3693d613fd9de88cb7e822227ef5050b4092b1d418bf57d64736f6c63430008010033",
  "immutableReferences": {},
  "source": "// SPDX-License-Identifier: MIT\r\npragma solidity ^0.8.0;\r\n\r\n//import \"@openzeppelin/contracts/access/Ownable.sol\";\r\nimport \"@OpenZeppelin/contracts/token/ERC721/extensions/ERC721Enumerable.sol\";\r\n//import \"@openzeppelin/contracts/token/ERC721/ERC721.sol\";\r\n//import \"@OpenZeppelin/contracts/utils/Counters.sol\";\r\nimport \"@Openzeppelin/contracts/utils/math/SafeMath.sol\";\r\nimport \"@openzeppelin/contracts/security/ReentrancyGuard.sol\";\r\n\r\n\r\n//had to write the ownable contract out cos context declared here has been declared before\r\nabstract contract Ownable is Context {\r\n    address private _owner;\r\n\r\n    event OwnershipTransferred(address indexed previousOwner, address indexed newOwner);\r\n\r\n    /**\r\n     * @dev Initializes the contract setting the deployer as the initial owner.\r\n     */\r\n    constructor() {\r\n        _transferOwnership(_msgSender());\r\n    }\r\n\r\n    /**\r\n     * @dev Returns the address of the current owner.\r\n     */\r\n    function owner() public view virtual returns (address) {\r\n        return _owner;\r\n    }\r\n\r\n    /**\r\n     * @dev Throws if called by any account other than the owner.\r\n     */\r\n    modifier onlyOwner() {\r\n        require(owner() == _msgSender(), \"Ownable: caller is not the owner\");\r\n        _;\r\n    }\r\n\r\n    /**\r\n     * @dev Leaves the contract without owner. It will not be possible to call\r\n     * `onlyOwner` functions anymore. Can only be called by the current owner.\r\n     *\r\n     * NOTE: Renouncing ownership will leave the contract without an owner,\r\n     * thereby removing any functionality that is only available to the owner.\r\n     */\r\n    function renounceOwnership() public virtual onlyOwner {\r\n        _transferOwnership(address(0));\r\n    }\r\n\r\n    /**\r\n     * @dev Transfers ownership of the contract to a new account (`newOwner`).\r\n     * Can only be called by the current owner.\r\n     */\r\n    function transferOwnership(address newOwner) public virtual onlyOwner {\r\n        require(newOwner != address(0), \"Ownable: new owner is the zero address\");\r\n        _transferOwnership(newOwner);\r\n    }\r\n\r\n    /**\r\n     * @dev Transfers ownership of the contract to a new account (`newOwner`).\r\n     * Internal function without access restriction.\r\n     */\r\n    function _transferOwnership(address newOwner) internal virtual {\r\n        address oldOwner = _owner;\r\n        _owner = newOwner;\r\n        emit OwnershipTransferred(oldOwner, newOwner);\r\n    }\r\n}\r\n\r\ncontract Humaverse is ERC721Enumerable, Ownable, ReentrancyGuard {\r\n    //using Counters for Counters.Counter;\r\n    //Counters.Counter private _tokenIds;\r\n\r\n    using SafeMath for uint256;\r\n\r\n    string public HV_PROVENANCE = \"\";\r\n\r\n    uint256 public startingIndexBlock;\r\n\r\n    uint256 public startingIndex;\r\n\r\n    uint256 public hvPrice;// = 80000000000000000; //0.08 ETH\r\n\r\n    uint public constant maxHVPurchase = 10;\r\n\r\n    uint256 public constant MAX_HV = 1000;\r\n\r\n    bool public saleIsActive = false;\r\n\r\n    uint256 public REVEAL_TIMESTAMP;\r\n\r\n    string private baseURI;//remember to turn to private\r\n\r\n    event BalanceWithdrawn(uint amount);\r\n    event saleStateFlipped(bool saleIsActive);\r\n    event HVNFTsMinted(address to, uint numberOfNFTs);\r\n    event TokenPriceSet(uint256 hvPrice);\r\n    \r\n\r\n    constructor() ERC721(\"HUMAVERSE\", \"HVNFT\") {}\r\n\r\n    function setTimeStamp(uint256 saleStart, uint256 daysOfSale)external onlyOwner {\r\n        REVEAL_TIMESTAMP = saleStart + (86400 * daysOfSale);\r\n    }\r\n\r\n    function setProvenanceHash(string memory provenanceHash) public onlyOwner returns(string memory){\r\n        HV_PROVENANCE = provenanceHash;\r\n        return HV_PROVENANCE;\r\n    }\r\n\r\n    //check the balance of the ether in the contract address\r\n    function ethBalance() public view returns(uint){\r\n        uint balance = address(this).balance;\r\n        return balance;\r\n    }\r\n\r\n    // transfer/withdraw the ether sent to the contract address to the admin/senders/owner(my) address\r\n    function withdraw() external onlyOwner payable{\r\n        uint balance = address(this).balance;\r\n        //address payable dogBoy = msg.sender;\r\n        //(dogBoy).transfer(balance);\r\n        Address.sendValue(payable(owner()), balance);\r\n        emit BalanceWithdrawn(balance );\r\n    }\r\n\r\n    /*\r\n    * Pause sale if active, make active if paused works like a toggle switch\r\n    */\r\n    function flipSaleState() public onlyOwner {\r\n        saleIsActive = !saleIsActive;\r\n        emit saleStateFlipped(saleIsActive);\r\n    }\r\n\r\n    function checkSaleState() public view returns(bool) {\r\n        return saleIsActive;\r\n    }\r\n\r\n    function _baseURI() internal view override returns (string memory) {\r\n        return baseURI;\r\n    }\r\n\r\n    function setBaseURI(string memory uri) external onlyOwner{\r\n        baseURI = uri;\r\n        //_setBaseURI(baseUri);\r\n        //return baseUri;\r\n        //emit BaseUriSet(baseUri);\r\n    }\r\n\r\n    function setHvPrice(uint256 amount) external onlyOwner{\r\n        hvPrice = amount;\r\n        emit TokenPriceSet(hvPrice);\r\n    }\r\n\r\n    /**function to mint for public sale after presale has ended */\r\n    function mintPublicSale(uint numberOfNFTs) public onlyOwner {  \r\n        require(totalSupply().add(numberOfNFTs) <= MAX_HV, \"Purchase would exceed max supply of Humaverses\");//if \r\n        require(numberOfNFTs > 0, \"Must mint at least one NFT/Token\");\r\n        uint supply = totalSupply();\r\n        uint i;\r\n        for (i = 0; i < numberOfNFTs; i++) {\r\n            _safeMint(msg.sender, supply + i);\r\n        }\r\n    }\r\n\r\n    function mintToken(uint numberOfNFTs) external payable nonReentrant{\r\n        require(saleIsActive == true, \"Sale has not started\");\r\n        require(numberOfNFTs > 0, \"Must mint at least one NFT/Token\");\r\n        require(numberOfNFTs <= maxHVPurchase, \"Can only mint 10 tokens at a time\");\r\n        require(totalSupply().add(numberOfNFTs) <= MAX_HV, \"Purchase would exceed max supply of Humaverses\");//if \r\n        require(hvPrice.mul(numberOfNFTs) <= msg.value, \"Ether value sent is not correct\");//multiply number of nfts with price it should be equal to the sent ether\r\n        \r\n        for (uint256 i = 0; i < numberOfNFTs; i++) {\r\n            //_tokenIds.increment();\r\n            //newItemId = _tokenIds.current();\r\n            uint newItemId = totalSupply();\r\n            if (totalSupply() < MAX_HV) {\r\n                _safeMint(msg.sender, (newItemId+1));\r\n            }\r\n        }\r\n\r\n        emit HVNFTsMinted(msg.sender, numberOfNFTs);\r\n\r\n        // If we haven't set the starting index and this is either 1) the last saleable token or 2) the first token to be sold after\r\n        // the end of pre-sale, set the starting index block\r\n        if (startingIndexBlock == 0 && (totalSupply() == MAX_HV || block.timestamp >= REVEAL_TIMESTAMP)) {\r\n            startingIndexBlock = block.number;\r\n        } \r\n    }\r\n\r\n    function tokenURI(uint256 _tokenId) override public view returns(string memory) {\r\n        return string(\r\n               abi.encodePacked(\r\n        //                \"https://ipfs.moralis.io:2053/ipfs/\", HV_PROVENANCE,\r\n                        baseURI,\r\n                        Strings.toString(_tokenId),\r\n                        \".json\"\r\n                    )\r\n            );\r\n    }\r\n\r\n    function setStartingIndex() public {\r\n        require(startingIndex == 0, \"Starting index is already set\");\r\n        require(startingIndexBlock != 0, \"Starting index block must be set\");\r\n        \r\n        startingIndex = uint(blockhash(startingIndexBlock)) % MAX_HV;\r\n        // Just a sanity case in the worst case if this function is called late (EVM only stores last 256 block hashes)\r\n        if (block.number.sub(startingIndexBlock) > 255) {\r\n            startingIndex = uint(blockhash(block.number - 1)) % MAX_HV;\r\n        }\r\n        // Prevent default sequence\r\n        if (startingIndex == 0) {\r\n            startingIndex = startingIndex.add(1);\r\n        }\r\n    }\r\n\r\n    /**\r\n     * Set the starting index block for the collection, essentially unblocking\r\n     * setting starting index\r\n     */\r\n    function emergencySetStartingIndexBlock() public onlyOwner {\r\n        require(startingIndex == 0, \"Starting index is already set\");\r\n        \r\n        startingIndexBlock = block.number;\r\n    }\r\n}",
  "sourcePath": "C:/Users/HP/Desktop/blockdev/smart_contracts/humaverse/contracts/Humaverse.sol",
  "compiler": {
    "name": "solc",
    "version": "0.8.1+commit.df193b15.Emscripten.clang"
  },
  "schemaVersion": "3.4.1",
  "updatedAt": "2022-04-03T19:01:53.203Z",
  "devdoc": {
    "kind": "dev",
    "methods": {
      "approve(address,uint256)": {
        "details": "See {IERC721-approve}."
      },
      "balanceOf(address)": {
        "details": "See {IERC721-balanceOf}."
      },
      "getApproved(uint256)": {
        "details": "See {IERC721-getApproved}."
      },
      "isApprovedForAll(address,address)": {
        "details": "See {IERC721-isApprovedForAll}."
      },
      "name()": {
        "details": "See {IERC721Metadata-name}."
      },
      "owner()": {
        "details": "Returns the address of the current owner."
      },
      "ownerOf(uint256)": {
        "details": "See {IERC721-ownerOf}."
      },
      "renounceOwnership()": {
        "details": "Leaves the contract without owner. It will not be possible to call `onlyOwner` functions anymore. Can only be called by the current owner. NOTE: Renouncing ownership will leave the contract without an owner, thereby removing any functionality that is only available to the owner."
      },
      "safeTransferFrom(address,address,uint256)": {
        "details": "See {IERC721-safeTransferFrom}."
      },
      "safeTransferFrom(address,address,uint256,bytes)": {
        "details": "See {IERC721-safeTransferFrom}."
      },
      "setApprovalForAll(address,bool)": {
        "details": "See {IERC721-setApprovalForAll}."
      },
      "supportsInterface(bytes4)": {
        "details": "See {IERC165-supportsInterface}."
      },
      "symbol()": {
        "details": "See {IERC721Metadata-symbol}."
      },
      "tokenByIndex(uint256)": {
        "details": "See {IERC721Enumerable-tokenByIndex}."
      },
      "tokenOfOwnerByIndex(address,uint256)": {
        "details": "See {IERC721Enumerable-tokenOfOwnerByIndex}."
      },
      "totalSupply()": {
        "details": "See {IERC721Enumerable-totalSupply}."
      },
      "transferFrom(address,address,uint256)": {
        "details": "See {IERC721-transferFrom}."
      },
      "transferOwnership(address)": {
        "details": "Transfers ownership of the contract to a new account (`newOwner`). Can only be called by the current owner."
      }
    },
    "version": 1
  },
  "userdoc": {
    "kind": "user",
    "methods": {
      "emergencySetStartingIndexBlock()": {
        "notice": "Set the starting index block for the collection, essentially unblocking setting starting index"
      },
      "mintPublicSale(uint256)": {
        "notice": "function to mint for public sale after presale has ended "
      }
    },
    "version": 1
  }
}