{
  "contractName": "Humaverse",
  "abi": [
    {
      "inputs": [],
      "stateMutability": "nonpayable",
      "type": "constructor"
    },
    {
      "anonymous": false,
      "inputs": [
        {
          "indexed": true,
          "internalType": "address",
          "name": "owner",
          "type": "address"
        },
        {
          "indexed": true,
          "internalType": "address",
          "name": "approved",
          "type": "address"
        },
        {
          "indexed": true,
          "internalType": "uint256",
          "name": "tokenId",
          "type": "uint256"
        }
      ],
      "name": "Approval",
      "type": "event"
    },
    {
      "anonymous": false,
      "inputs": [
        {
          "indexed": true,
          "internalType": "address",
          "name": "owner",
          "type": "address"
        },
        {
          "indexed": true,
          "internalType": "address",
          "name": "operator",
          "type": "address"
        },
        {
          "indexed": false,
          "internalType": "bool",
          "name": "approved",
          "type": "bool"
        }
      ],
      "name": "ApprovalForAll",
      "type": "event"
    },
    {
      "anonymous": false,
      "inputs": [
        {
          "indexed": false,
          "internalType": "uint256",
          "name": "amount",
          "type": "uint256"
        }
      ],
      "name": "BalanceWithdrawn",
      "type": "event"
    },
    {
      "anonymous": false,
      "inputs": [
        {
          "indexed": false,
          "internalType": "address",
          "name": "to",
          "type": "address"
        },
        {
          "indexed": false,
          "internalType": "uint256",
          "name": "numberOfNFTs",
          "type": "uint256"
        }
      ],
      "name": "HVNFTsMinted",
      "type": "event"
    },
    {
      "anonymous": false,
      "inputs": [
        {
          "indexed": true,
          "internalType": "address",
          "name": "previousOwner",
          "type": "address"
        },
        {
          "indexed": true,
          "internalType": "address",
          "name": "newOwner",
          "type": "address"
        }
      ],
      "name": "OwnershipTransferred",
      "type": "event"
    },
    {
      "anonymous": false,
      "inputs": [
        {
          "indexed": true,
          "internalType": "address",
          "name": "from",
          "type": "address"
        },
        {
          "indexed": true,
          "internalType": "address",
          "name": "to",
          "type": "address"
        },
        {
          "indexed": true,
          "internalType": "uint256",
          "name": "tokenId",
          "type": "uint256"
        }
      ],
      "name": "Transfer",
      "type": "event"
    },
    {
      "anonymous": false,
      "inputs": [
        {
          "indexed": false,
          "internalType": "bool",
          "name": "saleIsActive",
          "type": "bool"
        }
      ],
      "name": "saleStateFlipped",
      "type": "event"
    },
    {
      "inputs": [],
      "name": "HV_PROVENANCE",
      "outputs": [
        {
          "internalType": "string",
          "name": "",
          "type": "string"
        }
      ],
      "stateMutability": "view",
      "type": "function"
    },
    {
      "inputs": [],
      "name": "MAX_HV",
      "outputs": [
        {
          "internalType": "uint256",
          "name": "",
          "type": "uint256"
        }
      ],
      "stateMutability": "view",
      "type": "function"
    },
    {
      "inputs": [],
      "name": "REVEAL_TIMESTAMP",
      "outputs": [
        {
          "internalType": "uint256",
          "name": "",
          "type": "uint256"
        }
      ],
      "stateMutability": "view",
      "type": "function"
    },
    {
      "inputs": [
        {
          "internalType": "address",
          "name": "to",
          "type": "address"
        },
        {
          "internalType": "uint256",
          "name": "tokenId",
          "type": "uint256"
        }
      ],
      "name": "approve",
      "outputs": [],
      "stateMutability": "nonpayable",
      "type": "function"
    },
    {
      "inputs": [
        {
          "internalType": "address",
          "name": "owner",
          "type": "address"
        }
      ],
      "name": "balanceOf",
      "outputs": [
        {
          "internalType": "uint256",
          "name": "",
          "type": "uint256"
        }
      ],
      "stateMutability": "view",
      "type": "function"
    },
    {
      "inputs": [
        {
          "internalType": "uint256",
          "name": "tokenId",
          "type": "uint256"
        }
      ],
      "name": "getApproved",
      "outputs": [
        {
          "internalType": "address",
          "name": "",
          "type": "address"
        }
      ],
      "stateMutability": "view",
      "type": "function"
    },
    {
      "inputs": [],
      "name": "hvPrice",
      "outputs": [
        {
          "internalType": "uint256",
          "name": "",
          "type": "uint256"
        }
      ],
      "stateMutability": "view",
      "type": "function"
    },
    {
      "inputs": [
        {
          "internalType": "address",
          "name": "owner",
          "type": "address"
        },
        {
          "internalType": "address",
          "name": "operator",
          "type": "address"
        }
      ],
      "name": "isApprovedForAll",
      "outputs": [
        {
          "internalType": "bool",
          "name": "",
          "type": "bool"
        }
      ],
      "stateMutability": "view",
      "type": "function"
    },
    {
      "inputs": [],
      "name": "maxHVPurchase",
      "outputs": [
        {
          "internalType": "uint256",
          "name": "",
          "type": "uint256"
        }
      ],
      "stateMutability": "view",
      "type": "function"
    },
    {
      "inputs": [],
      "name": "name",
      "outputs": [
        {
          "internalType": "string",
          "name": "",
          "type": "string"
        }
      ],
      "stateMutability": "view",
      "type": "function"
    },
    {
      "inputs": [],
      "name": "owner",
      "outputs": [
        {
          "internalType": "address",
          "name": "",
          "type": "address"
        }
      ],
      "stateMutability": "view",
      "type": "function"
    },
    {
      "inputs": [
        {
          "internalType": "uint256",
          "name": "tokenId",
          "type": "uint256"
        }
      ],
      "name": "ownerOf",
      "outputs": [
        {
          "internalType": "address",
          "name": "",
          "type": "address"
        }
      ],
      "stateMutability": "view",
      "type": "function"
    },
    {
      "inputs": [],
      "name": "renounceOwnership",
      "outputs": [],
      "stateMutability": "nonpayable",
      "type": "function"
    },
    {
      "inputs": [
        {
          "internalType": "address",
          "name": "from",
          "type": "address"
        },
        {
          "internalType": "address",
          "name": "to",
          "type": "address"
        },
        {
          "internalType": "uint256",
          "name": "tokenId",
          "type": "uint256"
        }
      ],
      "name": "safeTransferFrom",
      "outputs": [],
      "stateMutability": "nonpayable",
      "type": "function"
    },
    {
      "inputs": [
        {
          "internalType": "address",
          "name": "from",
          "type": "address"
        },
        {
          "internalType": "address",
          "name": "to",
          "type": "address"
        },
        {
          "internalType": "uint256",
          "name": "tokenId",
          "type": "uint256"
        },
        {
          "internalType": "bytes",
          "name": "_data",
          "type": "bytes"
        }
      ],
      "name": "safeTransferFrom",
      "outputs": [],
      "stateMutability": "nonpayable",
      "type": "function"
    },
    {
      "inputs": [],
      "name": "saleIsActive",
      "outputs": [
        {
          "internalType": "bool",
          "name": "",
          "type": "bool"
        }
      ],
      "stateMutability": "view",
      "type": "function"
    },
    {
      "inputs": [
        {
          "internalType": "address",
          "name": "operator",
          "type": "address"
        },
        {
          "internalType": "bool",
          "name": "approved",
          "type": "bool"
        }
      ],
      "name": "setApprovalForAll",
      "outputs": [],
      "stateMutability": "nonpayable",
      "type": "function"
    },
    {
      "inputs": [],
      "name": "startingIndex",
      "outputs": [
        {
          "internalType": "uint256",
          "name": "",
          "type": "uint256"
        }
      ],
      "stateMutability": "view",
      "type": "function"
    },
    {
      "inputs": [],
      "name": "startingIndexBlock",
      "outputs": [
        {
          "internalType": "uint256",
          "name": "",
          "type": "uint256"
        }
      ],
      "stateMutability": "view",
      "type": "function"
    },
    {
      "inputs": [
        {
          "internalType": "bytes4",
          "name": "interfaceId",
          "type": "bytes4"
        }
      ],
      "name": "supportsInterface",
      "outputs": [
        {
          "internalType": "bool",
          "name": "",
          "type": "bool"
        }
      ],
      "stateMutability": "view",
      "type": "function"
    },
    {
      "inputs": [],
      "name": "symbol",
      "outputs": [
        {
          "internalType": "string",
          "name": "",
          "type": "string"
        }
      ],
      "stateMutability": "view",
      "type": "function"
    },
    {
      "inputs": [
        {
          "internalType": "uint256",
          "name": "tokenId",
          "type": "uint256"
        }
      ],
      "name": "tokenURI",
      "outputs": [
        {
          "internalType": "string",
          "name": "",
          "type": "string"
        }
      ],
      "stateMutability": "view",
      "type": "function"
    },
    {
      "inputs": [
        {
          "internalType": "address",
          "name": "from",
          "type": "address"
        },
        {
          "internalType": "address",
          "name": "to",
          "type": "address"
        },
        {
          "internalType": "uint256",
          "name": "tokenId",
          "type": "uint256"
        }
      ],
      "name": "transferFrom",
      "outputs": [],
      "stateMutability": "nonpayable",
      "type": "function"
    },
    {
      "inputs": [
        {
          "internalType": "address",
          "name": "newOwner",
          "type": "address"
        }
      ],
      "name": "transferOwnership",
      "outputs": [],
      "stateMutability": "nonpayable",
      "type": "function"
    },
    {
      "inputs": [
        {
          "internalType": "string",
          "name": "provenanceHash",
          "type": "string"
        }
      ],
      "name": "setProvenanceHash",
      "outputs": [
        {
          "internalType": "string",
          "name": "",
          "type": "string"
        }
      ],
      "stateMutability": "nonpayable",
      "type": "function"
    },
    {
      "inputs": [],
      "name": "ethBalance",
      "outputs": [
        {
          "internalType": "uint256",
          "name": "",
          "type": "uint256"
        }
      ],
      "stateMutability": "view",
      "type": "function"
    },
    {
      "inputs": [],
      "name": "withdraw",
      "outputs": [],
      "stateMutability": "payable",
      "type": "function"
    },
    {
      "inputs": [],
      "name": "flipSaleState",
      "outputs": [],
      "stateMutability": "nonpayable",
      "type": "function"
    },
    {
      "inputs": [],
      "name": "checkSaleState",
      "outputs": [
        {
          "internalType": "bool",
          "name": "",
          "type": "bool"
        }
      ],
      "stateMutability": "view",
      "type": "function"
    },
    {
      "inputs": [
        {
          "internalType": "string",
          "name": "uri",
          "type": "string"
        }
      ],
      "name": "setBaseURI",
      "outputs": [],
      "stateMutability": "nonpayable",
      "type": "function"
    },
    {
      "inputs": [
        {
          "internalType": "uint256",
          "name": "numberOfNFTs",
          "type": "uint256"
        }
      ],
      "name": "mintToken",
      "outputs": [],
      "stateMutability": "payable",
      "type": "function"
    },
    {
      "inputs": [],
      "name": "setStartingIndex",
      "outputs": [],
      "stateMutability": "nonpayable",
      "type": "function"
    },
    {
      "inputs": [],
      "name": "emergencySetStartingIndexBlock",
      "outputs": [],
      "stateMutability": "nonpayable",
      "type": "function"
    }
  ],
  "bytecode": "0x608060405260405180602001604052806000815250600990805190602001906200002b92919062000209565b506103e8600c556000600d60006101000a81548160ff0219169083151502179055503480156200005a57600080fd5b506040518060400160405280600981526020017f48554d41564552534500000000000000000000000000000000000000000000008152506040518060400160405280600581526020017f48564e46540000000000000000000000000000000000000000000000000000008152508160009080519060200190620000df92919062000209565b508060019080519060200190620000f892919062000209565b5050506200012d620001186200013b640100000000026401000000009004565b62000143640100000000026401000000009004565b60016007819055506200031e565b600033905090565b6000600660009054906101000a900473ffffffffffffffffffffffffffffffffffffffff16905081600660006101000a81548173ffffffffffffffffffffffffffffffffffffffff021916908373ffffffffffffffffffffffffffffffffffffffff1602179055508173ffffffffffffffffffffffffffffffffffffffff168173ffffffffffffffffffffffffffffffffffffffff167f8be0079c531659141344cd1fd0a4f28419497f9722a3daafe3b4186f6b6457e060405160405180910390a35050565b8280546200021790620002b9565b90600052602060002090601f0160209004810192826200023b576000855562000287565b82601f106200025657805160ff191683800117855562000287565b8280016001018555821562000287579182015b828111156200028657825182559160200191906001019062000269565b5b5090506200029691906200029a565b5090565b5b80821115620002b55760008160009055506001016200029b565b5090565b60006002820490506001821680620002d257607f821691505b60208210811415620002e957620002e8620002ef565b5b50919050565b7f4e487b7100000000000000000000000000000000000000000000000000000000600052602260045260246000fd5b614178806200032e6000396000f3fe60806040526004361061020b576000357c0100000000000000000000000000000000000000000000000000000000900480636352211e1161012a578063b88d4fde116100bd578063e36d64981161008c578063e36d6498146106b8578063e985e9c5146106e3578063e986655014610720578063eb8d244414610737578063f2fde38b146107625761020b565b8063b88d4fde1461060b578063c634d03214610634578063c87b56dd14610650578063cb774d471461068d5761020b565b80638b339da7116100f95780638b339da7146105615780638da5cb5b1461058c57806395d89b41146105b7578063a22cb465146105e25761020b565b80636352211e146104b957806370a08231146104f6578063715018a6146105335780637d17fcbe1461054a5761020b565b806318e20a38116101a25780633e71d5fb116101715780633e71d5fb1461041157806342842e0e1461043c5780634e6630b01461046557806355f804b3146104905761020b565b806318e20a381461039c57806323b872dd146103c757806334918dfd146103f05780633ccfd60b146104075761020b565b80630d351b4c116101de5780630d351b4c146102de5780630dec50b314610309578063109695231461033457806312f381cc146103715761020b565b806301ffc9a71461021057806306fdde031461024d578063081812fc14610278578063095ea7b3146102b5575b600080fd5b34801561021c57600080fd5b5061023760048036038101906102329190612c97565b61078b565b604051610244919061329d565b60405180910390f35b34801561025957600080fd5b5061026261086d565b60405161026f91906132b8565b60405180910390f35b34801561028457600080fd5b5061029f600480360381019061029a9190612d2a565b6108ff565b6040516102ac919061320d565b60405180910390f35b3480156102c157600080fd5b506102dc60048036038101906102d79190612c5b565b610984565b005b3480156102ea57600080fd5b506102f3610a9c565b604051610300919061361a565b60405180910390f35b34801561031557600080fd5b5061031e610aa8565b60405161032b919061361a565b60405180910390f35b34801561034057600080fd5b5061035b60048036038101906103569190612ce9565b610aad565b60405161036891906132b8565b60405180910390f35b34801561037d57600080fd5b50610386610bd4565b60405161039391906132b8565b60405180910390f35b3480156103a857600080fd5b506103b1610c62565b6040516103be919061361a565b60405180910390f35b3480156103d357600080fd5b506103ee60048036038101906103e99190612b55565b610c68565b005b3480156103fc57600080fd5b50610405610cc8565b005b61040f610db6565b005b34801561041d57600080fd5b50610426610e99565b604051610433919061329d565b60405180910390f35b34801561044857600080fd5b50610463600480360381019061045e9190612b55565b610eb0565b005b34801561047157600080fd5b5061047a610ed0565b604051610487919061361a565b60405180910390f35b34801561049c57600080fd5b506104b760048036038101906104b29190612ce9565b610ef4565b005b3480156104c557600080fd5b506104e060048036038101906104db9190612d2a565b610f8a565b6040516104ed919061320d565b60405180910390f35b34801561050257600080fd5b5061051d60048036038101906105189190612af0565b61103c565b60405161052a919061361a565b60405180910390f35b34801561053f57600080fd5b506105486110f4565b005b34801561055657600080fd5b5061055f61117c565b005b34801561056d57600080fd5b50610576611246565b604051610583919061361a565b60405180910390f35b34801561059857600080fd5b506105a161124c565b6040516105ae919061320d565b60405180910390f35b3480156105c357600080fd5b506105cc611276565b6040516105d991906132b8565b60405180910390f35b3480156105ee57600080fd5b5061060960048036038101906106049190612c1f565b611308565b005b34801561061757600080fd5b50610632600480360381019061062d9190612ba4565b61131e565b005b61064e60048036038101906106499190612d2a565b611380565b005b34801561065c57600080fd5b5061067760048036038101906106729190612d2a565b611626565b60405161068491906132b8565b60405180910390f35b34801561069957600080fd5b506106a26116cd565b6040516106af919061361a565b60405180910390f35b3480156106c457600080fd5b506106cd6116d3565b6040516106da919061361a565b60405180910390f35b3480156106ef57600080fd5b5061070a60048036038101906107059190612b19565b6116d9565b604051610717919061329d565b60405180910390f35b34801561072c57600080fd5b5061073561176d565b005b34801561074357600080fd5b5061074c611880565b604051610759919061329d565b60405180910390f35b34801561076e57600080fd5b5061078960048036038101906107849190612af0565b611893565b005b60007f80ac58cd000000000000000000000000000000000000000000000000000000007bffffffffffffffffffffffffffffffffffffffffffffffffffffffff1916827bffffffffffffffffffffffffffffffffffffffffffffffffffffffff1916148061085657507f5b5e139f000000000000000000000000000000000000000000000000000000007bffffffffffffffffffffffffffffffffffffffffffffffffffffffff1916827bffffffffffffffffffffffffffffffffffffffffffffffffffffffff1916145b8061086657506108658261198b565b5b9050919050565b60606000805461087c906138d5565b80601f01602080910402602001604051908101604052809291908181526020018280546108a8906138d5565b80156108f55780601f106108ca576101008083540402835291602001916108f5565b820191906000526020600020905b8154815290600101906020018083116108d857829003601f168201915b5050505050905090565b600061090a826119f5565b610949576040517f08c379a0000000000000000000000000000000000000000000000000000000008152600401610940906134fa565b60405180910390fd5b6004600083815260200190815260200160002060009054906101000a900473ffffffffffffffffffffffffffffffffffffffff169050919050565b600061098f82610f8a565b90508073ffffffffffffffffffffffffffffffffffffffff168373ffffffffffffffffffffffffffffffffffffffff161415610a00576040517f08c379a00000000000000000000000000000000000000000000000000000000081526004016109f79061355a565b60405180910390fd5b8073ffffffffffffffffffffffffffffffffffffffff16610a1f611a61565b73ffffffffffffffffffffffffffffffffffffffff161480610a4e5750610a4d81610a48611a61565b6116d9565b5b610a8d576040517f08c379a0000000000000000000000000000000000000000000000000000000008152600401610a849061343a565b60405180910390fd5b610a978383611a69565b505050565b67011c37937e08000081565b600a81565b6060610ab7611a61565b73ffffffffffffffffffffffffffffffffffffffff16610ad561124c565b73ffffffffffffffffffffffffffffffffffffffff1614610b2b576040517f08c379a0000000000000000000000000000000000000000000000000000000008152600401610b229061351a565b60405180910390fd5b8160099080519060200190610b41929190612914565b5060098054610b4f906138d5565b80601f0160208091040260200160405190810160405280929190818152602001828054610b7b906138d5565b8015610bc85780601f10610b9d57610100808354040283529160200191610bc8565b820191906000526020600020905b815481529060010190602001808311610bab57829003601f168201915b50505050509050919050565b60098054610be1906138d5565b80601f0160208091040260200160405190810160405280929190818152602001828054610c0d906138d5565b8015610c5a5780601f10610c2f57610100808354040283529160200191610c5a565b820191906000526020600020905b815481529060010190602001808311610c3d57829003601f168201915b505050505081565b600e5481565b610c79610c73611a61565b82611b22565b610cb8576040517f08c379a0000000000000000000000000000000000000000000000000000000008152600401610caf9061359a565b60405180910390fd5b610cc3838383611c00565b505050565b610cd0611a61565b73ffffffffffffffffffffffffffffffffffffffff16610cee61124c565b73ffffffffffffffffffffffffffffffffffffffff1614610d44576040517f08c379a0000000000000000000000000000000000000000000000000000000008152600401610d3b9061351a565b60405180910390fd5b600d60009054906101000a900460ff1615600d60006101000a81548160ff0219169083151502179055507f533d93712d08600cba0aff242b5a87bab629063e2ac53405a4c0639405c4fb37600d60009054906101000a900460ff16604051610dac919061329d565b60405180910390a1565b610dbe611a61565b73ffffffffffffffffffffffffffffffffffffffff16610ddc61124c565b73ffffffffffffffffffffffffffffffffffffffff1614610e32576040517f08c379a0000000000000000000000000000000000000000000000000000000008152600401610e299061351a565b60405180910390fd5b60003073ffffffffffffffffffffffffffffffffffffffff16319050610e5f610e5961124c565b82611e67565b7f39f8b889424a1684bd36857c25ab79691ed71adf60bbeca32820cb4de3c5884c81604051610e8e919061361a565b60405180910390a150565b6000600d60009054906101000a900460ff16905090565b610ecb8383836040518060200160405280600081525061131e565b505050565b6000803073ffffffffffffffffffffffffffffffffffffffff163190508091505090565b610efc611a61565b73ffffffffffffffffffffffffffffffffffffffff16610f1a61124c565b73ffffffffffffffffffffffffffffffffffffffff1614610f70576040517f08c379a0000000000000000000000000000000000000000000000000000000008152600401610f679061351a565b60405180910390fd5b8060109080519060200190610f86929190612914565b5050565b6000806002600084815260200190815260200160002060009054906101000a900473ffffffffffffffffffffffffffffffffffffffff169050600073ffffffffffffffffffffffffffffffffffffffff168173ffffffffffffffffffffffffffffffffffffffff161415611033576040517f08c379a000000000000000000000000000000000000000000000000000000000815260040161102a9061347a565b60405180910390fd5b80915050919050565b60008073ffffffffffffffffffffffffffffffffffffffff168273ffffffffffffffffffffffffffffffffffffffff1614156110ad576040517f08c379a00000000000000000000000000000000000000000000000000000000081526004016110a49061345a565b60405180910390fd5b600360008373ffffffffffffffffffffffffffffffffffffffff1673ffffffffffffffffffffffffffffffffffffffff168152602001908152602001600020549050919050565b6110fc611a61565b73ffffffffffffffffffffffffffffffffffffffff1661111a61124c565b73ffffffffffffffffffffffffffffffffffffffff1614611170576040517f08c379a00000000000000000000000000000000000000000000000000000000081526004016111679061351a565b60405180910390fd5b61117a6000611f72565b565b611184611a61565b73ffffffffffffffffffffffffffffffffffffffff166111a261124c565b73ffffffffffffffffffffffffffffffffffffffff16146111f8576040517f08c379a00000000000000000000000000000000000000000000000000000000081526004016111ef9061351a565b60405180910390fd5b6000600b541461123d576040517f08c379a00000000000000000000000000000000000000000000000000000000081526004016112349061341a565b60405180910390fd5b43600a81905550565b600c5481565b6000600660009054906101000a900473ffffffffffffffffffffffffffffffffffffffff16905090565b606060018054611285906138d5565b80601f01602080910402602001604051908101604052809291908181526020018280546112b1906138d5565b80156112fe5780601f106112d3576101008083540402835291602001916112fe565b820191906000526020600020905b8154815290600101906020018083116112e157829003601f168201915b5050505050905090565b61131a611313611a61565b8383612038565b5050565b61132f611329611a61565b83611b22565b61136e576040517f08c379a00000000000000000000000000000000000000000000000000000000081526004016113659061359a565b60405180910390fd5b61137a848484846121a5565b50505050565b600260075414156113c6576040517f08c379a00000000000000000000000000000000000000000000000000000000081526004016113bd906135da565b60405180910390fd5b600260078190555060011515600d60009054906101000a900460ff16151514611424576040517f08c379a000000000000000000000000000000000000000000000000000000000815260040161141b906135ba565b60405180910390fd5b60008111611467576040517f08c379a000000000000000000000000000000000000000000000000000000000815260040161145e906134da565b60405180910390fd5b600a8111156114ab576040517f08c379a00000000000000000000000000000000000000000000000000000000081526004016114a2906135fa565b60405180910390fd5b600c546114c382600f5461220190919063ffffffff16565b1115611504576040517f08c379a00000000000000000000000000000000000000000000000000000000081526004016114fb906134ba565b60405180910390fd5b346115208267011c37937e08000061221790919063ffffffff16565b1115611561576040517f08c379a00000000000000000000000000000000000000000000000000000000081526004016115589061339a565b60405180910390fd5b60005b818110156115b257611576600861222d565b6115806008612243565b600f81905550600c54600f54101561159f5761159e33600f54612251565b5b80806115aa90613938565b915050611564565b507fd1f040065ad626df3b7180ceab12b289adbdc0eeccb7e905667c9dead62186ab33826040516115e4929190613274565b60405180910390a16000600a5414801561160e5750600c54600f54148061160d5750600e544210155b5b1561161b5743600a819055505b600160078190555050565b6060611631826119f5565b611670576040517f08c379a00000000000000000000000000000000000000000000000000000000081526004016116679061353a565b60405180910390fd5b600061167a61226f565b9050600081511161169a57604051806020016040528060008152506116c5565b806116a484612301565b6040516020016116b59291906131d4565b6040516020818303038152906040525b915050919050565b600b5481565b600a5481565b6000600560008473ffffffffffffffffffffffffffffffffffffffff1673ffffffffffffffffffffffffffffffffffffffff16815260200190815260200160002060008373ffffffffffffffffffffffffffffffffffffffff1673ffffffffffffffffffffffffffffffffffffffff16815260200190815260200160002060009054906101000a900460ff16905092915050565b6000600b54146117b2576040517f08c379a00000000000000000000000000000000000000000000000000000000081526004016117a99061341a565b60405180910390fd5b6000600a5414156117f8576040517f08c379a00000000000000000000000000000000000000000000000000000000081526004016117ef9061357a565b60405180910390fd5b600c54600a54406001900461180d9190613981565b600b8190555060ff61182a600a54436124cd90919063ffffffff16565b111561185657600c5460014361184091906137eb565b406001900461184f9190613981565b600b819055505b6000600b54141561187e576118776001600b5461220190919063ffffffff16565b600b819055505b565b600d60009054906101000a900460ff1681565b61189b611a61565b73ffffffffffffffffffffffffffffffffffffffff166118b961124c565b73ffffffffffffffffffffffffffffffffffffffff161461190f576040517f08c379a00000000000000000000000000000000000000000000000000000000081526004016119069061351a565b60405180910390fd5b600073ffffffffffffffffffffffffffffffffffffffff168173ffffffffffffffffffffffffffffffffffffffff16141561197f576040517f08c379a0000000000000000000000000000000000000000000000000000000008152600401611976906132fa565b60405180910390fd5b61198881611f72565b50565b60007f01ffc9a7000000000000000000000000000000000000000000000000000000007bffffffffffffffffffffffffffffffffffffffffffffffffffffffff1916827bffffffffffffffffffffffffffffffffffffffffffffffffffffffff1916149050919050565b60008073ffffffffffffffffffffffffffffffffffffffff166002600084815260200190815260200160002060009054906101000a900473ffffffffffffffffffffffffffffffffffffffff1673ffffffffffffffffffffffffffffffffffffffff1614159050919050565b600033905090565b816004600083815260200190815260200160002060006101000a81548173ffffffffffffffffffffffffffffffffffffffff021916908373ffffffffffffffffffffffffffffffffffffffff160217905550808273ffffffffffffffffffffffffffffffffffffffff16611adc83610f8a565b73ffffffffffffffffffffffffffffffffffffffff167f8c5be1e5ebec7d5bd14f71427d1e84f3dd0314c0f7b2291e5b200ac8c7c3b92560405160405180910390a45050565b6000611b2d826119f5565b611b6c576040517f08c379a0000000000000000000000000000000000000000000000000000000008152600401611b63906133fa565b60405180910390fd5b6000611b7783610f8a565b90508073ffffffffffffffffffffffffffffffffffffffff168473ffffffffffffffffffffffffffffffffffffffff161480611be657508373ffffffffffffffffffffffffffffffffffffffff16611bce846108ff565b73ffffffffffffffffffffffffffffffffffffffff16145b80611bf75750611bf681856116d9565b5b91505092915050565b8273ffffffffffffffffffffffffffffffffffffffff16611c2082610f8a565b73ffffffffffffffffffffffffffffffffffffffff1614611c76576040517f08c379a0000000000000000000000000000000000000000000000000000000008152600401611c6d9061331a565b60405180910390fd5b600073ffffffffffffffffffffffffffffffffffffffff168273ffffffffffffffffffffffffffffffffffffffff161415611ce6576040517f08c379a0000000000000000000000000000000000000000000000000000000008152600401611cdd9061335a565b60405180910390fd5b611cf18383836124e3565b611cfc600082611a69565b6001600360008573ffffffffffffffffffffffffffffffffffffffff1673ffffffffffffffffffffffffffffffffffffffff1681526020019081526020016000206000828254611d4c91906137eb565b925050819055506001600360008473ffffffffffffffffffffffffffffffffffffffff1673ffffffffffffffffffffffffffffffffffffffff1681526020019081526020016000206000828254611da3919061370a565b92505081905550816002600083815260200190815260200160002060006101000a81548173ffffffffffffffffffffffffffffffffffffffff021916908373ffffffffffffffffffffffffffffffffffffffff160217905550808273ffffffffffffffffffffffffffffffffffffffff168473ffffffffffffffffffffffffffffffffffffffff167fddf252ad1be2c89b69c2b068fc378daa952ba7f163c4a11628f55a4df523b3ef60405160405180910390a4611e628383836124e8565b505050565b803073ffffffffffffffffffffffffffffffffffffffff16311015611ec1576040517f08c379a0000000000000000000000000000000000000000000000000000000008152600401611eb8906133da565b60405180910390fd5b60008273ffffffffffffffffffffffffffffffffffffffff1682604051611ee7906131f8565b60006040518083038185875af1925050503d8060008114611f24576040519150601f19603f3d011682016040523d82523d6000602084013e611f29565b606091505b5050905080611f6d576040517f08c379a0000000000000000000000000000000000000000000000000000000008152600401611f64906133ba565b60405180910390fd5b505050565b6000600660009054906101000a900473ffffffffffffffffffffffffffffffffffffffff16905081600660006101000a81548173ffffffffffffffffffffffffffffffffffffffff021916908373ffffffffffffffffffffffffffffffffffffffff1602179055508173ffffffffffffffffffffffffffffffffffffffff168173ffffffffffffffffffffffffffffffffffffffff167f8be0079c531659141344cd1fd0a4f28419497f9722a3daafe3b4186f6b6457e060405160405180910390a35050565b8173ffffffffffffffffffffffffffffffffffffffff168373ffffffffffffffffffffffffffffffffffffffff1614156120a7576040517f08c379a000000000000000000000000000000000000000000000000000000000815260040161209e9061337a565b60405180910390fd5b80600560008573ffffffffffffffffffffffffffffffffffffffff1673ffffffffffffffffffffffffffffffffffffffff16815260200190815260200160002060008473ffffffffffffffffffffffffffffffffffffffff1673ffffffffffffffffffffffffffffffffffffffff16815260200190815260200160002060006101000a81548160ff0219169083151502179055508173ffffffffffffffffffffffffffffffffffffffff168373ffffffffffffffffffffffffffffffffffffffff167f17307eab39ab6107e8899845ad3d59bd9653f200f220920489ca2b5937696c3183604051612198919061329d565b60405180910390a3505050565b6121b0848484611c00565b6121bc848484846124ed565b6121fb576040517f08c379a00000000000000000000000000000000000000000000000000000000081526004016121f2906132da565b60405180910390fd5b50505050565b6000818361220f919061370a565b905092915050565b600081836122259190613791565b905092915050565b6001816000016000828254019250508190555050565b600081600001549050919050565b61226b8282604051806020016040528060008152506126bc565b5050565b60606010805461227e906138d5565b80601f01602080910402602001604051908101604052809291908181526020018280546122aa906138d5565b80156122f75780601f106122cc576101008083540402835291602001916122f7565b820191906000526020600020905b8154815290600101906020018083116122da57829003601f168201915b5050505050905090565b60606000821415612349576040518060400160405280600181526020017f300000000000000000000000000000000000000000000000000000000000000081525090506124c8565b600082905060005b6000821461237b57808061236490613938565b915050600a826123749190613760565b9150612351565b60008167ffffffffffffffff8111156123bd577f4e487b7100000000000000000000000000000000000000000000000000000000600052604160045260246000fd5b6040519080825280601f01601f1916602001820160405280156123ef5781602001600182028036833780820191505090505b5090505b600085146124c15760018261240891906137eb565b9150600a856124179190613981565b6030612423919061370a565b7f01000000000000000000000000000000000000000000000000000000000000000281838151811061247e577f4e487b7100000000000000000000000000000000000000000000000000000000600052603260045260246000fd5b60200101907effffffffffffffffffffffffffffffffffffffffffffffffffffffffffffff1916908160001a905350600a856124ba9190613760565b94506123f3565b8093505050505b919050565b600081836124db91906137eb565b905092915050565b505050565b505050565b600061250e8473ffffffffffffffffffffffffffffffffffffffff16612717565b156126af578373ffffffffffffffffffffffffffffffffffffffff1663150b7a02612537611a61565b8786866040518563ffffffff167c01000000000000000000000000000000000000000000000000000000000281526004016125759493929190613228565b602060405180830381600087803b15801561258f57600080fd5b505af19250505080156125c057506040513d601f19601f820116820180604052508101906125bd9190612cc0565b60015b612643573d80600081146125f0576040519150601f19603f3d011682016040523d82523d6000602084013e6125f5565b606091505b5060008151141561263b576040517f08c379a0000000000000000000000000000000000000000000000000000000008152600401612632906132da565b60405180910390fd5b805181602001fd5b63150b7a027c0100000000000000000000000000000000000000000000000000000000027bffffffffffffffffffffffffffffffffffffffffffffffffffffffff1916817bffffffffffffffffffffffffffffffffffffffffffffffffffffffff1916149150506126b4565b600190505b949350505050565b6126c6838361273a565b6126d360008484846124ed565b612712576040517f08c379a0000000000000000000000000000000000000000000000000000000008152600401612709906132da565b60405180910390fd5b505050565b6000808273ffffffffffffffffffffffffffffffffffffffff163b119050919050565b600073ffffffffffffffffffffffffffffffffffffffff168273ffffffffffffffffffffffffffffffffffffffff1614156127aa576040517f08c379a00000000000000000000000000000000000000000000000000000000081526004016127a19061349a565b60405180910390fd5b6127b3816119f5565b156127f3576040517f08c379a00000000000000000000000000000000000000000000000000000000081526004016127ea9061333a565b60405180910390fd5b6127ff600083836124e3565b6001600360008473ffffffffffffffffffffffffffffffffffffffff1673ffffffffffffffffffffffffffffffffffffffff168152602001908152602001600020600082825461284f919061370a565b92505081905550816002600083815260200190815260200160002060006101000a81548173ffffffffffffffffffffffffffffffffffffffff021916908373ffffffffffffffffffffffffffffffffffffffff160217905550808273ffffffffffffffffffffffffffffffffffffffff16600073ffffffffffffffffffffffffffffffffffffffff167fddf252ad1be2c89b69c2b068fc378daa952ba7f163c4a11628f55a4df523b3ef60405160405180910390a4612910600083836124e8565b5050565b828054612920906138d5565b90600052602060002090601f0160209004810192826129425760008555612989565b82601f1061295b57805160ff1916838001178555612989565b82800160010185558215612989579182015b8281111561298857825182559160200191906001019061296d565b5b509050612996919061299a565b5090565b5b808211156129b357600081600090555060010161299b565b5090565b60006129ca6129c58461365a565b613635565b9050828152602081018484840111156129e257600080fd5b6129ed848285613893565b509392505050565b6000612a08612a038461368b565b613635565b905082815260208101848484011115612a2057600080fd5b612a2b848285613893565b509392505050565b600081359050612a42816140e6565b92915050565b600081359050612a57816140fd565b92915050565b600081359050612a6c81614114565b92915050565b600081519050612a8181614114565b92915050565b600082601f830112612a9857600080fd5b8135612aa88482602086016129b7565b91505092915050565b600082601f830112612ac257600080fd5b8135612ad28482602086016129f5565b91505092915050565b600081359050612aea8161412b565b92915050565b600060208284031215612b0257600080fd5b6000612b1084828501612a33565b91505092915050565b60008060408385031215612b2c57600080fd5b6000612b3a85828601612a33565b9250506020612b4b85828601612a33565b9150509250929050565b600080600060608486031215612b6a57600080fd5b6000612b7886828701612a33565b9350506020612b8986828701612a33565b9250506040612b9a86828701612adb565b9150509250925092565b60008060008060808587031215612bba57600080fd5b6000612bc887828801612a33565b9450506020612bd987828801612a33565b9350506040612bea87828801612adb565b925050606085013567ffffffffffffffff811115612c0757600080fd5b612c1387828801612a87565b91505092959194509250565b60008060408385031215612c3257600080fd5b6000612c4085828601612a33565b9250506020612c5185828601612a48565b9150509250929050565b60008060408385031215612c6e57600080fd5b6000612c7c85828601612a33565b9250506020612c8d85828601612adb565b9150509250929050565b600060208284031215612ca957600080fd5b6000612cb784828501612a5d565b91505092915050565b600060208284031215612cd257600080fd5b6000612ce084828501612a72565b91505092915050565b600060208284031215612cfb57600080fd5b600082013567ffffffffffffffff811115612d1557600080fd5b612d2184828501612ab1565b91505092915050565b600060208284031215612d3c57600080fd5b6000612d4a84828501612adb565b91505092915050565b612d5c8161381f565b82525050565b612d6b81613831565b82525050565b6000612d7c826136bc565b612d8681856136d2565b9350612d968185602086016138a2565b612d9f81613a6e565b840191505092915050565b6000612db5826136c7565b612dbf81856136ee565b9350612dcf8185602086016138a2565b612dd881613a6e565b840191505092915050565b6000612dee826136c7565b612df881856136ff565b9350612e088185602086016138a2565b80840191505092915050565b6000612e216032836136ee565b9150612e2c82613a7f565b604082019050919050565b6000612e446026836136ee565b9150612e4f82613ace565b604082019050919050565b6000612e676025836136ee565b9150612e7282613b1d565b604082019050919050565b6000612e8a601c836136ee565b9150612e9582613b6c565b602082019050919050565b6000612ead6024836136ee565b9150612eb882613b95565b604082019050919050565b6000612ed06019836136ee565b9150612edb82613be4565b602082019050919050565b6000612ef3601f836136ee565b9150612efe82613c0d565b602082019050919050565b6000612f16603a836136ee565b9150612f2182613c36565b604082019050919050565b6000612f39601d836136ee565b9150612f4482613c85565b602082019050919050565b6000612f5c602c836136ee565b9150612f6782613cae565b604082019050919050565b6000612f7f601d836136ee565b9150612f8a82613cfd565b602082019050919050565b6000612fa26038836136ee565b9150612fad82613d26565b604082019050919050565b6000612fc5602a836136ee565b9150612fd082613d75565b604082019050919050565b6000612fe86029836136ee565b9150612ff382613dc4565b604082019050919050565b600061300b6020836136ee565b915061301682613e13565b602082019050919050565b600061302e6028836136ee565b915061303982613e3c565b604082019050919050565b60006130516020836136ee565b915061305c82613e8b565b602082019050919050565b6000613074602c836136ee565b915061307f82613eb4565b604082019050919050565b60006130976020836136ee565b91506130a282613f03565b602082019050919050565b60006130ba602f836136ee565b91506130c582613f2c565b604082019050919050565b60006130dd6021836136ee565b91506130e882613f7b565b604082019050919050565b60006131006020836136ee565b915061310b82613fca565b602082019050919050565b60006131236000836136e3565b915061312e82613ff3565b600082019050919050565b60006131466031836136ee565b915061315182613ff6565b604082019050919050565b60006131696014836136ee565b915061317482614045565b602082019050919050565b600061318c601f836136ee565b91506131978261406e565b602082019050919050565b60006131af6021836136ee565b91506131ba82614097565b604082019050919050565b6131ce81613889565b82525050565b60006131e08285612de3565b91506131ec8284612de3565b91508190509392505050565b600061320382613116565b9150819050919050565b60006020820190506132226000830184612d53565b92915050565b600060808201905061323d6000830187612d53565b61324a6020830186612d53565b61325760408301856131c5565b81810360608301526132698184612d71565b905095945050505050565b60006040820190506132896000830185612d53565b61329660208301846131c5565b9392505050565b60006020820190506132b26000830184612d62565b92915050565b600060208201905081810360008301526132d28184612daa565b905092915050565b600060208201905081810360008301526132f381612e14565b9050919050565b6000602082019050818103600083015261331381612e37565b9050919050565b6000602082019050818103600083015261333381612e5a565b9050919050565b6000602082019050818103600083015261335381612e7d565b9050919050565b6000602082019050818103600083015261337381612ea0565b9050919050565b6000602082019050818103600083015261339381612ec3565b9050919050565b600060208201905081810360008301526133b381612ee6565b9050919050565b600060208201905081810360008301526133d381612f09565b9050919050565b600060208201905081810360008301526133f381612f2c565b9050919050565b6000602082019050818103600083015261341381612f4f565b9050919050565b6000602082019050818103600083015261343381612f72565b9050919050565b6000602082019050818103600083015261345381612f95565b9050919050565b6000602082019050818103600083015261347381612fb8565b9050919050565b6000602082019050818103600083015261349381612fdb565b9050919050565b600060208201905081810360008301526134b381612ffe565b9050919050565b600060208201905081810360008301526134d381613021565b9050919050565b600060208201905081810360008301526134f381613044565b9050919050565b6000602082019050818103600083015261351381613067565b9050919050565b600060208201905081810360008301526135338161308a565b9050919050565b60006020820190508181036000830152613553816130ad565b9050919050565b60006020820190508181036000830152613573816130d0565b9050919050565b60006020820190508181036000830152613593816130f3565b9050919050565b600060208201905081810360008301526135b381613139565b9050919050565b600060208201905081810360008301526135d38161315c565b9050919050565b600060208201905081810360008301526135f38161317f565b9050919050565b60006020820190508181036000830152613613816131a2565b9050919050565b600060208201905061362f60008301846131c5565b92915050565b600061363f613650565b905061364b8282613907565b919050565b6000604051905090565b600067ffffffffffffffff82111561367557613674613a3f565b5b61367e82613a6e565b9050602081019050919050565b600067ffffffffffffffff8211156136a6576136a5613a3f565b5b6136af82613a6e565b9050602081019050919050565b600081519050919050565b600081519050919050565b600082825260208201905092915050565b600081905092915050565b600082825260208201905092915050565b600081905092915050565b600061371582613889565b915061372083613889565b9250827fffffffffffffffffffffffffffffffffffffffffffffffffffffffffffffffff03821115613755576137546139b2565b5b828201905092915050565b600061376b82613889565b915061377683613889565b925082613786576137856139e1565b5b828204905092915050565b600061379c82613889565b91506137a783613889565b9250817fffffffffffffffffffffffffffffffffffffffffffffffffffffffffffffffff04831182151516156137e0576137df6139b2565b5b828202905092915050565b60006137f682613889565b915061380183613889565b925082821015613814576138136139b2565b5b828203905092915050565b600061382a82613869565b9050919050565b60008115159050919050565b60007fffffffff0000000000000000000000000000000000000000000000000000000082169050919050565b600073ffffffffffffffffffffffffffffffffffffffff82169050919050565b6000819050919050565b82818337600083830152505050565b60005b838110156138c05780820151818401526020810190506138a5565b838111156138cf576000848401525b50505050565b600060028204905060018216806138ed57607f821691505b6020821081141561390157613900613a10565b5b50919050565b61391082613a6e565b810181811067ffffffffffffffff8211171561392f5761392e613a3f565b5b80604052505050565b600061394382613889565b91507fffffffffffffffffffffffffffffffffffffffffffffffffffffffffffffffff821415613976576139756139b2565b5b600182019050919050565b600061398c82613889565b915061399783613889565b9250826139a7576139a66139e1565b5b828206905092915050565b7f4e487b7100000000000000000000000000000000000000000000000000000000600052601160045260246000fd5b7f4e487b7100000000000000000000000000000000000000000000000000000000600052601260045260246000fd5b7f4e487b7100000000000000000000000000000000000000000000000000000000600052602260045260246000fd5b7f4e487b7100000000000000000000000000000000000000000000000000000000600052604160045260246000fd5b6000601f19601f8301169050919050565b7f4552433732313a207472616e7366657220746f206e6f6e20455243373231526560008201527f63656976657220696d706c656d656e7465720000000000000000000000000000602082015250565b7f4f776e61626c653a206e6577206f776e657220697320746865207a65726f206160008201527f6464726573730000000000000000000000000000000000000000000000000000602082015250565b7f4552433732313a207472616e736665722066726f6d20696e636f72726563742060008201527f6f776e6572000000000000000000000000000000000000000000000000000000602082015250565b7f4552433732313a20746f6b656e20616c7265616479206d696e74656400000000600082015250565b7f4552433732313a207472616e7366657220746f20746865207a65726f2061646460008201527f7265737300000000000000000000000000000000000000000000000000000000602082015250565b7f4552433732313a20617070726f766520746f2063616c6c657200000000000000600082015250565b7f45746865722076616c75652073656e74206973206e6f7420636f727265637400600082015250565b7f416464726573733a20756e61626c6520746f2073656e642076616c75652c207260008201527f6563697069656e74206d61792068617665207265766572746564000000000000602082015250565b7f416464726573733a20696e73756666696369656e742062616c616e6365000000600082015250565b7f4552433732313a206f70657261746f7220717565727920666f72206e6f6e657860008201527f697374656e7420746f6b656e0000000000000000000000000000000000000000602082015250565b7f5374617274696e6720696e64657820697320616c726561647920736574000000600082015250565b7f4552433732313a20617070726f76652063616c6c6572206973206e6f74206f7760008201527f6e6572206e6f7220617070726f76656420666f7220616c6c0000000000000000602082015250565b7f4552433732313a2062616c616e636520717565727920666f7220746865207a6560008201527f726f206164647265737300000000000000000000000000000000000000000000602082015250565b7f4552433732313a206f776e657220717565727920666f72206e6f6e657869737460008201527f656e7420746f6b656e0000000000000000000000000000000000000000000000602082015250565b7f4552433732313a206d696e7420746f20746865207a65726f2061646472657373600082015250565b7f507572636861736520776f756c6420657863656564206d617820737570706c7960008201527f206f662041706573000000000000000000000000000000000000000000000000602082015250565b7f4d757374206d696e74206174206c65617374206f6e65204e46542f546f6b656e600082015250565b7f4552433732313a20617070726f76656420717565727920666f72206e6f6e657860008201527f697374656e7420746f6b656e0000000000000000000000000000000000000000602082015250565b7f4f776e61626c653a2063616c6c6572206973206e6f7420746865206f776e6572600082015250565b7f4552433732314d657461646174613a2055524920717565727920666f72206e6f60008201527f6e6578697374656e7420746f6b656e0000000000000000000000000000000000602082015250565b7f4552433732313a20617070726f76616c20746f2063757272656e74206f776e6560008201527f7200000000000000000000000000000000000000000000000000000000000000602082015250565b7f5374617274696e6720696e64657820626c6f636b206d75737420626520736574600082015250565b50565b7f4552433732313a207472616e736665722063616c6c6572206973206e6f74206f60008201527f776e6572206e6f7220617070726f766564000000000000000000000000000000602082015250565b7f53616c6520686173206e6f742073746172746564000000000000000000000000600082015250565b7f5265656e7472616e637947756172643a207265656e7472616e742063616c6c00600082015250565b7f43616e206f6e6c79206d696e7420313020746f6b656e7320617420612074696d60008201527f6500000000000000000000000000000000000000000000000000000000000000602082015250565b6140ef8161381f565b81146140fa57600080fd5b50565b61410681613831565b811461411157600080fd5b50565b61411d8161383d565b811461412857600080fd5b50565b61413481613889565b811461413f57600080fd5b5056fea264697066735822122085e36c10c893f66941b3a0b7cb8dd97ad9b2cbec6627b4981ad88c9cdf19916b64736f6c63430008010033",
  "immutableReferences": {},
  "source": "// SPDX-License-Identifier: MIT\r\npragma solidity ^0.8.0;\r\n\r\n//import \"@openzeppelin/contracts/access/Ownable.sol\";\r\n//import \"@OpenZeppelin/contracts/token/ERC721/extensions/ERC721URIStorage.sol\";\r\nimport \"@openzeppelin/contracts/token/ERC721/ERC721.sol\";\r\nimport \"@OpenZeppelin/contracts/utils/Counters.sol\";\r\nimport \"@Openzeppelin/contracts/utils/math/SafeMath.sol\";\r\nimport \"@openzeppelin/contracts/security/ReentrancyGuard.sol\";\r\n\r\n\r\n//had to write the ownable contract out cos context declared here has been declared before\r\nabstract contract Ownable is Context {\r\n    address private _owner;\r\n\r\n    event OwnershipTransferred(address indexed previousOwner, address indexed newOwner);\r\n\r\n    /**\r\n     * @dev Initializes the contract setting the deployer as the initial owner.\r\n     */\r\n    constructor() {\r\n        _transferOwnership(_msgSender());\r\n    }\r\n\r\n    /**\r\n     * @dev Returns the address of the current owner.\r\n     */\r\n    function owner() public view virtual returns (address) {\r\n        return _owner;\r\n    }\r\n\r\n    /**\r\n     * @dev Throws if called by any account other than the owner.\r\n     */\r\n    modifier onlyOwner() {\r\n        require(owner() == _msgSender(), \"Ownable: caller is not the owner\");\r\n        _;\r\n    }\r\n\r\n    /**\r\n     * @dev Leaves the contract without owner. It will not be possible to call\r\n     * `onlyOwner` functions anymore. Can only be called by the current owner.\r\n     *\r\n     * NOTE: Renouncing ownership will leave the contract without an owner,\r\n     * thereby removing any functionality that is only available to the owner.\r\n     */\r\n    function renounceOwnership() public virtual onlyOwner {\r\n        _transferOwnership(address(0));\r\n    }\r\n\r\n    /**\r\n     * @dev Transfers ownership of the contract to a new account (`newOwner`).\r\n     * Can only be called by the current owner.\r\n     */\r\n    function transferOwnership(address newOwner) public virtual onlyOwner {\r\n        require(newOwner != address(0), \"Ownable: new owner is the zero address\");\r\n        _transferOwnership(newOwner);\r\n    }\r\n\r\n    /**\r\n     * @dev Transfers ownership of the contract to a new account (`newOwner`).\r\n     * Internal function without access restriction.\r\n     */\r\n    function _transferOwnership(address newOwner) internal virtual {\r\n        address oldOwner = _owner;\r\n        _owner = newOwner;\r\n        emit OwnershipTransferred(oldOwner, newOwner);\r\n    }\r\n}\r\n\r\ncontract Humaverse is ERC721, Ownable, ReentrancyGuard {\r\n    using Counters for Counters.Counter;\r\n    Counters.Counter private _tokenIds;\r\n\r\n    using SafeMath for uint256;\r\n\r\n    string public HV_PROVENANCE = \"\";\r\n\r\n    uint256 public startingIndexBlock;\r\n\r\n    uint256 public startingIndex;\r\n\r\n    uint256 public constant hvPrice = 80000000000000000; //0.08 ETH\r\n\r\n    uint public constant maxHVPurchase = 10;\r\n\r\n    uint256 public MAX_HV = 1000;\r\n\r\n    bool public saleIsActive = false;\r\n\r\n    uint256 public REVEAL_TIMESTAMP;\r\n\r\n    uint256 private newItemId;\r\n\r\n    string private baseURI;\r\n\r\n    event BalanceWithdrawn(uint amount);\r\n    event saleStateFlipped(bool saleIsActive);\r\n    event HVNFTsMinted(address to, uint numberOfNFTs);\r\n    \r\n\r\n    constructor() ERC721(\"HUMAVERSE\", \"HVNFT\") {}\r\n\r\n\r\n    function setProvenanceHash(string memory provenanceHash) public onlyOwner returns(string memory){\r\n        HV_PROVENANCE = provenanceHash;\r\n        return HV_PROVENANCE;\r\n    }\r\n\r\n    //check the balance of the ether in the contract address\r\n    function ethBalance() public view returns(uint){\r\n        uint balance = address(this).balance;\r\n        return balance;\r\n    }\r\n\r\n    // transfer/withdraw the ether sent to the contract address to the admin/senders/owner(my) address\r\n    function withdraw() external onlyOwner payable{\r\n        uint balance = address(this).balance;\r\n        //address payable dogBoy = msg.sender;\r\n        //(dogBoy).transfer(balance);\r\n        Address.sendValue(payable(owner()), balance);\r\n        emit BalanceWithdrawn(balance );\r\n    }\r\n\r\n    /*\r\n    * Pause sale if active, make active if paused works like a toggle switch\r\n    */\r\n    function flipSaleState() public onlyOwner {\r\n        saleIsActive = !saleIsActive;\r\n        emit saleStateFlipped(saleIsActive);\r\n    }\r\n\r\n    function checkSaleState() public view returns(bool) {\r\n        return saleIsActive;\r\n    }\r\n\r\n    function _baseURI() internal view override returns (string memory) {\r\n        return baseURI;\r\n    }\r\n\r\n    function setBaseURI(string memory uri) external onlyOwner{\r\n        baseURI = uri;\r\n        //_setBaseURI(baseUri);\r\n        //return baseUri;\r\n        //emit BaseUriSet(baseUri);\r\n    }\r\n\r\n\r\n\r\n    function mintToken(uint numberOfNFTs) public payable nonReentrant{\r\n        require(saleIsActive == true, \"Sale has not started\");\r\n        require(numberOfNFTs > 0, \"Must mint at least one NFT/Token\");\r\n        require(numberOfNFTs <= maxHVPurchase, \"Can only mint 10 tokens at a time\");\r\n        require(newItemId.add(numberOfNFTs) <= MAX_HV, \"Purchase would exceed max supply of Apes\");//if \r\n        require(hvPrice.mul(numberOfNFTs) <= msg.value, \"Ether value sent is not correct\");//multiply number of nfts with price it should be equal to the sent ether\r\n        \r\n\r\n        //_tokenIds.increment();\r\n        //uint256 newItemId = _tokenIds.current();\r\n        //_safeMint(msg.sender, newItemId);\r\n        //_setTokenURI(newItemId, tokenURI);\r\n        for (uint256 i = 0; i < numberOfNFTs; i++) {\r\n            _tokenIds.increment();\r\n            newItemId = _tokenIds.current();\r\n            if (newItemId < MAX_HV) {\r\n                _safeMint(msg.sender, newItemId);\r\n            }\r\n        }\r\n\r\n        emit HVNFTsMinted(msg.sender, numberOfNFTs);\r\n\r\n        // If we haven't set the starting index and this is either 1) the last saleable token or 2) the first token to be sold after\r\n        // the end of pre-sale, set the starting index block\r\n        if (startingIndexBlock == 0 && (newItemId == MAX_HV || block.timestamp >= REVEAL_TIMESTAMP)) {\r\n            startingIndexBlock = block.number;\r\n        } \r\n    }\r\n\r\n    function setStartingIndex() public {\r\n        require(startingIndex == 0, \"Starting index is already set\");\r\n        require(startingIndexBlock != 0, \"Starting index block must be set\");\r\n        \r\n        startingIndex = uint(blockhash(startingIndexBlock)) % MAX_HV;\r\n        // Just a sanity case in the worst case if this function is called late (EVM only stores last 256 block hashes)\r\n        if (block.number.sub(startingIndexBlock) > 255) {\r\n            startingIndex = uint(blockhash(block.number - 1)) % MAX_HV;\r\n        }\r\n        // Prevent default sequence\r\n        if (startingIndex == 0) {\r\n            startingIndex = startingIndex.add(1);\r\n        }\r\n    }\r\n\r\n    /**\r\n     * Set the starting index block for the collection, essentially unblocking\r\n     * setting starting index\r\n     */\r\n    function emergencySetStartingIndexBlock() public onlyOwner {\r\n        require(startingIndex == 0, \"Starting index is already set\");\r\n        \r\n        startingIndexBlock = block.number;\r\n    }\r\n}",
  "sourcePath": "C:/Users/HP/Desktop/blockdev/smart_contracts/humaverse/contracts/Humaverse.sol",
  "compiler": {
    "name": "solc",
    "version": "0.8.1+commit.df193b15.Emscripten.clang"
  },
  "schemaVersion": "3.4.1",
  "updatedAt": "2022-04-02T08:06:06.140Z",
  "devdoc": {
    "kind": "dev",
    "methods": {
      "approve(address,uint256)": {
        "details": "See {IERC721-approve}."
      },
      "balanceOf(address)": {
        "details": "See {IERC721-balanceOf}."
      },
      "getApproved(uint256)": {
        "details": "See {IERC721-getApproved}."
      },
      "isApprovedForAll(address,address)": {
        "details": "See {IERC721-isApprovedForAll}."
      },
      "name()": {
        "details": "See {IERC721Metadata-name}."
      },
      "owner()": {
        "details": "Returns the address of the current owner."
      },
      "ownerOf(uint256)": {
        "details": "See {IERC721-ownerOf}."
      },
      "renounceOwnership()": {
        "details": "Leaves the contract without owner. It will not be possible to call `onlyOwner` functions anymore. Can only be called by the current owner. NOTE: Renouncing ownership will leave the contract without an owner, thereby removing any functionality that is only available to the owner."
      },
      "safeTransferFrom(address,address,uint256)": {
        "details": "See {IERC721-safeTransferFrom}."
      },
      "safeTransferFrom(address,address,uint256,bytes)": {
        "details": "See {IERC721-safeTransferFrom}."
      },
      "setApprovalForAll(address,bool)": {
        "details": "See {IERC721-setApprovalForAll}."
      },
      "supportsInterface(bytes4)": {
        "details": "See {IERC165-supportsInterface}."
      },
      "symbol()": {
        "details": "See {IERC721Metadata-symbol}."
      },
      "tokenURI(uint256)": {
        "details": "See {IERC721Metadata-tokenURI}."
      },
      "transferFrom(address,address,uint256)": {
        "details": "See {IERC721-transferFrom}."
      },
      "transferOwnership(address)": {
        "details": "Transfers ownership of the contract to a new account (`newOwner`). Can only be called by the current owner."
      }
    },
    "version": 1
  },
  "userdoc": {
    "kind": "user",
    "methods": {
      "emergencySetStartingIndexBlock()": {
        "notice": "Set the starting index block for the collection, essentially unblocking setting starting index"
      }
    },
    "version": 1
  }
}